{
  "_format": "hh-sol-artifact-1",
  "contractName": "Campaign",
  "sourceName": "contracts/Campaign.sol",
  "abi": [
    {
      "inputs": [
        {
          "internalType": "uint256",
          "name": "minimun",
          "type": "uint256"
        },
        {
          "internalType": "address",
          "name": "creator",
          "type": "address"
        },
        {
          "internalType": "string",
          "name": "name",
          "type": "string"
        },
        {
          "internalType": "string",
          "name": "description",
          "type": "string"
        },
        {
          "internalType": "string",
          "name": "image",
          "type": "string"
        },
        {
          "internalType": "uint256",
          "name": "target",
          "type": "uint256"
        }
      ],
      "stateMutability": "nonpayable",
      "type": "constructor"
    },
    {
      "inputs": [
        {
          "internalType": "uint256",
          "name": "index",
          "type": "uint256"
        }
      ],
      "name": "approveRequest",
      "outputs": [],
      "stateMutability": "nonpayable",
      "type": "function"
    },
    {
      "inputs": [
        {
          "internalType": "address",
          "name": "",
          "type": "address"
        }
      ],
      "name": "approvers",
      "outputs": [
        {
          "internalType": "bool",
          "name": "",
          "type": "bool"
        }
      ],
      "stateMutability": "view",
      "type": "function"
    },
    {
      "inputs": [],
      "name": "approversCount",
      "outputs": [
        {
          "internalType": "uint256",
          "name": "",
          "type": "uint256"
        }
      ],
      "stateMutability": "view",
      "type": "function"
    },
    {
      "inputs": [],
      "name": "campaignDescription",
      "outputs": [
        {
          "internalType": "string",
          "name": "",
          "type": "string"
        }
      ],
      "stateMutability": "view",
      "type": "function"
    },
    {
      "inputs": [],
      "name": "campaignName",
      "outputs": [
        {
          "internalType": "string",
          "name": "",
          "type": "string"
        }
      ],
      "stateMutability": "view",
      "type": "function"
    },
    {
      "inputs": [],
      "name": "contibute",
      "outputs": [],
      "stateMutability": "payable",
      "type": "function"
    },
    {
      "inputs": [
        {
          "internalType": "uint256",
          "name": "",
          "type": "uint256"
        }
      ],
      "name": "contributers",
      "outputs": [
        {
          "internalType": "address",
          "name": "",
          "type": "address"
        }
      ],
      "stateMutability": "view",
      "type": "function"
    },
    {
      "inputs": [
        {
          "internalType": "string",
          "name": "description",
          "type": "string"
        },
        {
          "internalType": "uint256",
          "name": "value",
          "type": "uint256"
        }
      ],
      "name": "createRequest",
      "outputs": [],
      "stateMutability": "nonpayable",
      "type": "function"
    },
    {
      "inputs": [],
      "name": "getDetails",
      "outputs": [
        {
          "internalType": "uint256",
          "name": "",
          "type": "uint256"
        },
        {
          "internalType": "uint256",
          "name": "",
          "type": "uint256"
        },
        {
          "internalType": "string",
          "name": "",
          "type": "string"
        },
        {
          "internalType": "string",
          "name": "",
          "type": "string"
        },
        {
          "internalType": "string",
          "name": "",
          "type": "string"
        },
        {
          "internalType": "uint256",
          "name": "",
          "type": "uint256"
        }
      ],
      "stateMutability": "view",
      "type": "function"
    },
    {
      "inputs": [],
      "name": "imageUrl",
      "outputs": [
        {
          "internalType": "string",
          "name": "",
          "type": "string"
        }
      ],
      "stateMutability": "view",
      "type": "function"
    },
    {
      "inputs": [],
      "name": "minimunContribution",
      "outputs": [
        {
          "internalType": "uint256",
          "name": "",
          "type": "uint256"
        }
      ],
      "stateMutability": "view",
      "type": "function"
    },
    {
      "inputs": [
        {
          "internalType": "uint256",
          "name": "",
          "type": "uint256"
        }
      ],
      "name": "requests",
      "outputs": [
        {
          "internalType": "string",
          "name": "description",
          "type": "string"
        },
        {
          "internalType": "uint256",
          "name": "value",
          "type": "uint256"
        },
        {
          "internalType": "bool",
          "name": "complete",
          "type": "bool"
        },
        {
          "internalType": "uint256",
          "name": "approvalCount",
          "type": "uint256"
        }
      ],
      "stateMutability": "view",
      "type": "function"
    },
    {
      "inputs": [],
      "name": "targetToAchieve",
      "outputs": [
        {
          "internalType": "uint256",
          "name": "",
          "type": "uint256"
        }
      ],
      "stateMutability": "view",
      "type": "function"
    }
  ],
  "bytecode": "0x60806040523480156200001157600080fd5b5060405162001eeb38038062001eeb83398181016040528101906200003791906200022d565b84600160006101000a81548173ffffffffffffffffffffffffffffffffffffffff021916908373ffffffffffffffffffffffffffffffffffffffff16021790555085600281905550836003908051906020019062000097929190620000dd565b508260049080519060200190620000b0929190620000dd565b508160059080519060200190620000c9929190620000dd565b5080600681905550505050505050620004f0565b828054620000eb90620003e1565b90600052602060002090601f0160209004810192826200010f57600085556200015b565b82601f106200012a57805160ff19168380011785556200015b565b828001600101855582156200015b579182015b828111156200015a5782518255916020019190600101906200013d565b5b5090506200016a91906200016e565b5090565b5b80821115620001895760008160009055506001016200016f565b5090565b6000620001a46200019e8462000337565b6200030e565b905082815260208101848484011115620001bd57600080fd5b620001ca848285620003ab565b509392505050565b600081519050620001e381620004bc565b92915050565b600082601f830112620001fb57600080fd5b81516200020d8482602086016200018d565b91505092915050565b6000815190506200022781620004d6565b92915050565b60008060008060008060c087890312156200024757600080fd5b60006200025789828a0162000216565b96505060206200026a89828a01620001d2565b955050604087015167ffffffffffffffff8111156200028857600080fd5b6200029689828a01620001e9565b945050606087015167ffffffffffffffff811115620002b457600080fd5b620002c289828a01620001e9565b935050608087015167ffffffffffffffff811115620002e057600080fd5b620002ee89828a01620001e9565b92505060a06200030189828a0162000216565b9150509295509295509295565b60006200031a6200032d565b905062000328828262000417565b919050565b6000604051905090565b600067ffffffffffffffff8211156200035557620003546200047c565b5b6200036082620004ab565b9050602081019050919050565b60006200037a8262000381565b9050919050565b600073ffffffffffffffffffffffffffffffffffffffff82169050919050565b6000819050919050565b60005b83811015620003cb578082015181840152602081019050620003ae565b83811115620003db576000848401525b50505050565b60006002820490506001821680620003fa57607f821691505b602082108114156200041157620004106200044d565b5b50919050565b6200042282620004ab565b810181811067ffffffffffffffff821117156200044457620004436200047c565b5b80604052505050565b7f4e487b7100000000000000000000000000000000000000000000000000000000600052602260045260246000fd5b7f4e487b7100000000000000000000000000000000000000000000000000000000600052604160045260246000fd5b6000601f19601f8301169050919050565b620004c7816200036d565b8114620004d357600080fd5b50565b620004e181620003a1565b8114620004ed57600080fd5b50565b6119eb80620005006000396000f3fe6080604052600436106100c25760003560e01c8063a7f337151161007f578063b2a87fc311610059578063b2a87fc314610281578063d7d1bbdb146102ac578063ea25213f146102d5578063fbbf93a0146102df576100c2565b8063a7f3371514610202578063aa6e90c01461022d578063aba8315014610256576100c2565b80630724fda9146100c75780630a144391146100f2578063110842cb1461012f5780631fbed5791461015a57806381d12c581461019757806382fde093146101d7575b600080fd5b3480156100d357600080fd5b506100dc61030f565b6040516100e9919061133d565b60405180910390f35b3480156100fe57600080fd5b50610119600480360381019061011491906110ce565b61039d565b6040516101269190611322565b60405180910390f35b34801561013b57600080fd5b506101446103bd565b604051610151919061133d565b60405180910390f35b34801561016657600080fd5b50610181600480360381019061017c919061114b565b61044b565b60405161018e9190611307565b60405180910390f35b3480156101a357600080fd5b506101be60048036038101906101b9919061114b565b61048a565b6040516101ce949392919061135f565b60405180910390f35b3480156101e357600080fd5b506101ec61055f565b6040516101f9919061148b565b60405180910390f35b34801561020e57600080fd5b50610217610565565b604051610224919061148b565b60405180910390f35b34801561023957600080fd5b50610254600480360381019061024f91906110f7565b61056b565b005b34801561026257600080fd5b5061026b610645565b604051610278919061133d565b60405180910390f35b34801561028d57600080fd5b506102966106d3565b6040516102a3919061148b565b60405180910390f35b3480156102b857600080fd5b506102d360048036038101906102ce919061114b565b6106d9565b005b6102dd6109aa565b005b3480156102eb57600080fd5b506102f4610ba6565b604051610306969594939291906114a6565b60405180910390f35b6003805461031c90611654565b80601f016020809104026020016040519081016040528092919081815260200182805461034890611654565b80156103955780601f1061036a57610100808354040283529160200191610395565b820191906000526020600020905b81548152906001019060200180831161037857829003601f168201915b505050505081565b60086020528060005260406000206000915054906101000a900460ff1681565b600480546103ca90611654565b80601f01602080910402602001604051908101604052809291908181526020018280546103f690611654565b80156104435780601f1061041857610100808354040283529160200191610443565b820191906000526020600020905b81548152906001019060200180831161042657829003601f168201915b505050505081565b6007818154811061045b57600080fd5b906000526020600020016000915054906101000a900473ffffffffffffffffffffffffffffffffffffffff1681565b6000818154811061049a57600080fd5b90600052602060002090600502016000915090508060000180546104bd90611654565b80601f01602080910402602001604051908101604052809291908181526020018280546104e990611654565b80156105365780601f1061050b57610100808354040283529160200191610536565b820191906000526020600020905b81548152906001019060200180831161051957829003601f168201915b5050505050908060010154908060020160009054906101000a900460ff16908060030154905084565b60095481565b60025481565b600160009054906101000a900473ffffffffffffffffffffffffffffffffffffffff1673ffffffffffffffffffffffffffffffffffffffff163373ffffffffffffffffffffffffffffffffffffffff16146105fb576040517f08c379a00000000000000000000000000000000000000000000000000000000081526004016105f2906113ab565b60405180910390fd5b600080600181600181540180825580915050039060005260206000209060050201905082816000019080519060200190610636929190610f99565b50818160010181905550505050565b6005805461065290611654565b80601f016020809104026020016040519081016040528092919081815260200182805461067e90611654565b80156106cb5780601f106106a0576101008083540402835291602001916106cb565b820191906000526020600020905b8154815290600101906020018083116106ae57829003601f168201915b505050505081565b60065481565b600860003373ffffffffffffffffffffffffffffffffffffffff1673ffffffffffffffffffffffffffffffffffffffff16815260200190815260200160002060009054906101000a900460ff16610765576040517f08c379a000000000000000000000000000000000000000000000000000000000815260040161075c906113cb565b60405180910390fd5b6000818154811061079f577f4e487b7100000000000000000000000000000000000000000000000000000000600052603260045260246000fd5b906000526020600020906005020160040160003373ffffffffffffffffffffffffffffffffffffffff1673ffffffffffffffffffffffffffffffffffffffff16815260200190815260200160002060009054906101000a900460ff161561083b576040517f08c379a00000000000000000000000000000000000000000000000000000000081526004016108329061146b565b60405180910390fd5b600160008281548110610877577f4e487b7100000000000000000000000000000000000000000000000000000000600052603260045260246000fd5b906000526020600020906005020160040160003373ffffffffffffffffffffffffffffffffffffffff1673ffffffffffffffffffffffffffffffffffffffff16815260200190815260200160002060006101000a81548160ff02191690831515021790555060008181548110610916577f4e487b7100000000000000000000000000000000000000000000000000000000600052603260045260246000fd5b90600052602060002090600502016003016000815480929190610938906116b7565b9190505550600260095461094c9190611599565b60008281548110610986577f4e487b7100000000000000000000000000000000000000000000000000000000600052603260045260246000fd5b906000526020600020906005020160030154106109a7576109a681610d77565b5b50565b600160009054906101000a900473ffffffffffffffffffffffffffffffffffffffff1673ffffffffffffffffffffffffffffffffffffffff163373ffffffffffffffffffffffffffffffffffffffff161415610a3b576040517f08c379a0000000000000000000000000000000000000000000000000000000008152600401610a329061144b565b60405180910390fd5b6002543411610a7f576040517f08c379a0000000000000000000000000000000000000000000000000000000008152600401610a769061140b565b60405180910390fd5b600860003373ffffffffffffffffffffffffffffffffffffffff1673ffffffffffffffffffffffffffffffffffffffff16815260200190815260200160002060009054906101000a900460ff16610ba4576007339080600181540180825580915050600190039060005260206000200160009091909190916101000a81548173ffffffffffffffffffffffffffffffffffffffff021916908373ffffffffffffffffffffffffffffffffffffffff1602179055506001600860003373ffffffffffffffffffffffffffffffffffffffff1673ffffffffffffffffffffffffffffffffffffffff16815260200190815260200160002060006101000a81548160ff02191690831515021790555060096000815480929190610b9e906116b7565b91905055505b565b60008060608060606000600254600954600360046005600654838054610bcb90611654565b80601f0160208091040260200160405190810160405280929190818152602001828054610bf790611654565b8015610c445780601f10610c1957610100808354040283529160200191610c44565b820191906000526020600020905b815481529060010190602001808311610c2757829003601f168201915b50505050509350828054610c5790611654565b80601f0160208091040260200160405190810160405280929190818152602001828054610c8390611654565b8015610cd05780601f10610ca557610100808354040283529160200191610cd0565b820191906000526020600020905b815481529060010190602001808311610cb357829003601f168201915b50505050509250818054610ce390611654565b80601f0160208091040260200160405190810160405280929190818152602001828054610d0f90611654565b8015610d5c5780601f10610d3157610100808354040283529160200191610d5c565b820191906000526020600020905b815481529060010190602001808311610d3f57829003601f168201915b50505050509150955095509550955095509550909192939495565b60008181548110610db1577f4e487b7100000000000000000000000000000000000000000000000000000000600052603260045260246000fd5b906000526020600020906005020160020160009054906101000a900460ff1615610e10576040517f08c379a0000000000000000000000000000000000000000000000000000000008152600401610e079061142b565b60405180910390fd5b6000808281548110610e4b577f4e487b7100000000000000000000000000000000000000000000000000000000600052603260045260246000fd5b9060005260206000209060050201600101549050600080600160009054906101000a900473ffffffffffffffffffffffffffffffffffffffff1673ffffffffffffffffffffffffffffffffffffffff1683604051610ea8906112f2565b60006040518083038185875af1925050503d8060008114610ee5576040519150601f19603f3d011682016040523d82523d6000602084013e610eea565b606091505b509150915081610f2f576040517f08c379a0000000000000000000000000000000000000000000000000000000008152600401610f26906113eb565b60405180910390fd5b600160008581548110610f6b577f4e487b7100000000000000000000000000000000000000000000000000000000600052603260045260246000fd5b906000526020600020906005020160020160006101000a81548160ff02191690831515021790555050505050565b828054610fa590611654565b90600052602060002090601f016020900481019282610fc7576000855561100e565b82601f10610fe057805160ff191683800117855561100e565b8280016001018555821561100e579182015b8281111561100d578251825591602001919060010190610ff2565b5b50905061101b919061101f565b5090565b5b80821115611038576000816000905550600101611020565b5090565b600061104f61104a84611541565b61151c565b90508281526020810184848401111561106757600080fd5b611072848285611612565b509392505050565b60008135905061108981611987565b92915050565b600082601f8301126110a057600080fd5b81356110b084826020860161103c565b91505092915050565b6000813590506110c88161199e565b92915050565b6000602082840312156110e057600080fd5b60006110ee8482850161107a565b91505092915050565b6000806040838503121561110a57600080fd5b600083013567ffffffffffffffff81111561112457600080fd5b6111308582860161108f565b9250506020611141858286016110b9565b9150509250929050565b60006020828403121561115d57600080fd5b600061116b848285016110b9565b91505092915050565b61117d816115ca565b82525050565b61118c816115dc565b82525050565b600061119d82611572565b6111a78185611588565b93506111b7818560208601611621565b6111c0816117bc565b840191505092915050565b60006111d8603783611588565b91506111e3826117cd565b604082019050919050565b60006111fb601b83611588565b91506112068261181c565b602082019050919050565b600061121e601483611588565b915061122982611845565b602082019050919050565b6000611241602583611588565b915061124c8261186e565b604082019050919050565b600061126460008361157d565b915061126f826118bd565b600082019050919050565b6000611287601983611588565b9150611292826118c0565b602082019050919050565b60006112aa602a83611588565b91506112b5826118e9565b604082019050919050565b60006112cd602183611588565b91506112d882611938565b604082019050919050565b6112ec81611608565b82525050565b60006112fd82611257565b9150819050919050565b600060208201905061131c6000830184611174565b92915050565b60006020820190506113376000830184611183565b92915050565b600060208201905081810360008301526113578184611192565b905092915050565b600060808201905081810360008301526113798187611192565b905061138860208301866112e3565b6113956040830185611183565b6113a260608301846112e3565b95945050505050565b600060208201905081810360008301526113c4816111cb565b9050919050565b600060208201905081810360008301526113e4816111ee565b9050919050565b6000602082019050818103600083015261140481611211565b9050919050565b6000602082019050818103600083015261142481611234565b9050919050565b600060208201905081810360008301526114448161127a565b9050919050565b600060208201905081810360008301526114648161129d565b9050919050565b60006020820190508181036000830152611484816112c0565b9050919050565b60006020820190506114a060008301846112e3565b92915050565b600060c0820190506114bb60008301896112e3565b6114c860208301886112e3565b81810360408301526114da8187611192565b905081810360608301526114ee8186611192565b905081810360808301526115028185611192565b905061151160a08301846112e3565b979650505050505050565b6000611526611537565b90506115328282611686565b919050565b6000604051905090565b600067ffffffffffffffff82111561155c5761155b61178d565b5b611565826117bc565b9050602081019050919050565b600081519050919050565b600081905092915050565b600082825260208201905092915050565b60006115a482611608565b91506115af83611608565b9250826115bf576115be61172f565b5b828204905092915050565b60006115d5826115e8565b9050919050565b60008115159050919050565b600073ffffffffffffffffffffffffffffffffffffffff82169050919050565b6000819050919050565b82818337600083830152505050565b60005b8381101561163f578082015181840152602081019050611624565b8381111561164e576000848401525b50505050565b6000600282049050600182168061166c57607f821691505b602082108114156116805761167f61175e565b5b50919050565b61168f826117bc565b810181811067ffffffffffffffff821117156116ae576116ad61178d565b5b80604052505050565b60006116c282611608565b91507fffffffffffffffffffffffffffffffffffffffffffffffffffffffffffffffff8214156116f5576116f4611700565b5b600182019050919050565b7f4e487b7100000000000000000000000000000000000000000000000000000000600052601160045260246000fd5b7f4e487b7100000000000000000000000000000000000000000000000000000000600052601260045260246000fd5b7f4e487b7100000000000000000000000000000000000000000000000000000000600052602260045260246000fd5b7f4e487b7100000000000000000000000000000000000000000000000000000000600052604160045260246000fd5b6000601f19601f8301169050919050565b7f596f752063616e2774206372656174652061207265717565737420696620796f60008201527f7520617265206e6f742074686520726563697069656e74000000000000000000602082015250565b7f596f752063616e277420617070726f7665206120726571756573740000000000600082015250565b7f4661696c656420746f2073656e64204574686572000000000000000000000000600082015250565b7f436f6e747269627574696f6e206973206c657373207468616e20746865206d6960008201527f6e696d756d000000000000000000000000000000000000000000000000000000602082015250565b50565b7f5265717565737420616c72656164792066696e616c697a656400000000000000600082015250565b7f596f752063616e6e6f7420636f6e7472696275746520746f20796f7572206f7760008201527f6e2063616d706169676e00000000000000000000000000000000000000000000602082015250565b7f596f7520616c726561647920617070726f76656420746869732072657175657360008201527f7400000000000000000000000000000000000000000000000000000000000000602082015250565b611990816115ca565b811461199b57600080fd5b50565b6119a781611608565b81146119b257600080fd5b5056fea2646970667358221220c987f109be02590640cc7d848eacc62fcd77b7d1e0b882b12ada1a5d243df57164736f6c63430008040033",
  "linkReferences": {},
  "deployedLinkReferences": {}
}