{
  "_format": "hh-sol-artifact-1",
  "contractName": "Campaign",
  "sourceName": "contracts/Campaign.sol",
  "abi": [
    {
      "inputs": [
        {
          "internalType": "uint256",
          "name": "minimun",
          "type": "uint256"
        },
        {
          "internalType": "address",
          "name": "creator",
          "type": "address"
        },
        {
          "internalType": "string",
          "name": "name",
          "type": "string"
        },
        {
          "internalType": "string",
          "name": "description",
          "type": "string"
        },
        {
          "internalType": "string",
          "name": "image",
          "type": "string"
        },
        {
          "internalType": "uint256",
          "name": "target",
          "type": "uint256"
        },
        {
          "internalType": "string",
          "name": "category",
          "type": "string"
        },
        {
          "internalType": "uint256",
          "name": "lastDate",
          "type": "uint256"
        }
      ],
      "stateMutability": "nonpayable",
      "type": "constructor"
    },
    {
      "inputs": [],
      "name": "alwaysApproved",
      "outputs": [
        {
          "internalType": "uint256",
          "name": "",
          "type": "uint256"
        }
      ],
      "stateMutability": "view",
      "type": "function"
    },
    {
      "inputs": [
        {
          "internalType": "address",
          "name": "",
          "type": "address"
        }
      ],
      "name": "alwaysApprovedMap",
      "outputs": [
        {
          "internalType": "bool",
          "name": "",
          "type": "bool"
        }
      ],
      "stateMutability": "view",
      "type": "function"
    },
    {
      "inputs": [
        {
          "internalType": "uint256",
          "name": "index",
          "type": "uint256"
        }
      ],
      "name": "approveRequest",
      "outputs": [],
      "stateMutability": "nonpayable",
      "type": "function"
    },
    {
      "inputs": [
        {
          "internalType": "address",
          "name": "",
          "type": "address"
        }
      ],
      "name": "approvers",
      "outputs": [
        {
          "internalType": "bool",
          "name": "",
          "type": "bool"
        }
      ],
      "stateMutability": "view",
      "type": "function"
    },
    {
      "inputs": [],
      "name": "approversCount",
      "outputs": [
        {
          "internalType": "uint256",
          "name": "",
          "type": "uint256"
        }
      ],
      "stateMutability": "view",
      "type": "function"
    },
    {
      "inputs": [],
      "name": "campaignCategory",
      "outputs": [
        {
          "internalType": "string",
          "name": "",
          "type": "string"
        }
      ],
      "stateMutability": "view",
      "type": "function"
    },
    {
      "inputs": [],
      "name": "campaignDescription",
      "outputs": [
        {
          "internalType": "string",
          "name": "",
          "type": "string"
        }
      ],
      "stateMutability": "view",
      "type": "function"
    },
    {
      "inputs": [],
      "name": "campaignLastDate",
      "outputs": [
        {
          "internalType": "uint256",
          "name": "",
          "type": "uint256"
        }
      ],
      "stateMutability": "view",
      "type": "function"
    },
    {
      "inputs": [],
      "name": "campaignName",
      "outputs": [
        {
          "internalType": "string",
          "name": "",
          "type": "string"
        }
      ],
      "stateMutability": "view",
      "type": "function"
    },
    {
      "inputs": [],
      "name": "collectedAmount",
      "outputs": [
        {
          "internalType": "uint256",
          "name": "",
          "type": "uint256"
        }
      ],
      "stateMutability": "view",
      "type": "function"
    },
    {
      "inputs": [
        {
          "internalType": "bool",
          "name": "wantToApprove",
          "type": "bool"
        }
      ],
      "name": "contibute",
      "outputs": [],
      "stateMutability": "payable",
      "type": "function"
    },
    {
      "inputs": [
        {
          "internalType": "uint256",
          "name": "",
          "type": "uint256"
        }
      ],
      "name": "contributers",
      "outputs": [
        {
          "internalType": "address",
          "name": "",
          "type": "address"
        }
      ],
      "stateMutability": "view",
      "type": "function"
    },
    {
      "inputs": [
        {
          "internalType": "address",
          "name": "",
          "type": "address"
        }
      ],
      "name": "contributersMap",
      "outputs": [
        {
          "internalType": "bool",
          "name": "",
          "type": "bool"
        }
      ],
      "stateMutability": "view",
      "type": "function"
    },
    {
      "inputs": [
        {
          "internalType": "string",
          "name": "description",
          "type": "string"
        },
        {
          "internalType": "uint256",
          "name": "value",
          "type": "uint256"
        }
      ],
      "name": "createRequest",
      "outputs": [],
      "stateMutability": "nonpayable",
      "type": "function"
    },
    {
      "inputs": [],
      "name": "getDetails",
      "outputs": [
        {
          "internalType": "uint256",
          "name": "",
          "type": "uint256"
        },
        {
          "internalType": "uint256",
          "name": "",
          "type": "uint256"
        },
        {
          "internalType": "string",
          "name": "",
          "type": "string"
        },
        {
          "internalType": "string",
          "name": "",
          "type": "string"
        },
        {
          "internalType": "string",
          "name": "",
          "type": "string"
        },
        {
          "internalType": "uint256",
          "name": "",
          "type": "uint256"
        },
        {
          "internalType": "string",
          "name": "",
          "type": "string"
        },
        {
          "internalType": "uint256",
          "name": "",
          "type": "uint256"
        },
        {
          "internalType": "uint256",
          "name": "",
          "type": "uint256"
        },
        {
          "internalType": "uint256",
          "name": "",
          "type": "uint256"
        },
        {
          "internalType": "address",
          "name": "",
          "type": "address"
        }
      ],
      "stateMutability": "view",
      "type": "function"
    },
    {
      "inputs": [
        {
          "internalType": "uint256",
          "name": "index",
          "type": "uint256"
        },
        {
          "internalType": "address",
          "name": "user",
          "type": "address"
        }
      ],
      "name": "getRequestApproval",
      "outputs": [
        {
          "internalType": "bool",
          "name": "",
          "type": "bool"
        }
      ],
      "stateMutability": "view",
      "type": "function"
    },
    {
      "inputs": [],
      "name": "getRequestsCount",
      "outputs": [
        {
          "internalType": "uint256",
          "name": "",
          "type": "uint256"
        }
      ],
      "stateMutability": "view",
      "type": "function"
    },
    {
      "inputs": [],
      "name": "imageUrl",
      "outputs": [
        {
          "internalType": "string",
          "name": "",
          "type": "string"
        }
      ],
      "stateMutability": "view",
      "type": "function"
    },
    {
      "inputs": [],
      "name": "minimunContribution",
      "outputs": [
        {
          "internalType": "uint256",
          "name": "",
          "type": "uint256"
        }
      ],
      "stateMutability": "view",
      "type": "function"
    },
    {
      "inputs": [],
      "name": "requestedAmount",
      "outputs": [
        {
          "internalType": "uint256",
          "name": "",
          "type": "uint256"
        }
      ],
      "stateMutability": "view",
      "type": "function"
    },
    {
      "inputs": [
        {
          "internalType": "uint256",
          "name": "",
          "type": "uint256"
        }
      ],
      "name": "requests",
      "outputs": [
        {
          "internalType": "string",
          "name": "description",
          "type": "string"
        },
        {
          "internalType": "uint256",
          "name": "value",
          "type": "uint256"
        },
        {
          "internalType": "bool",
          "name": "complete",
          "type": "bool"
        },
        {
          "internalType": "uint256",
          "name": "approvalCount",
          "type": "uint256"
        }
      ],
      "stateMutability": "view",
      "type": "function"
    },
    {
      "inputs": [],
      "name": "targetToAchieve",
      "outputs": [
        {
          "internalType": "uint256",
          "name": "",
          "type": "uint256"
        }
      ],
      "stateMutability": "view",
      "type": "function"
    }
  ],
  "bytecode": "0x60806040523480156200001157600080fd5b50604051620029913803806200299183398181016040528101906200003791906200024f565b86600160006101000a81548173ffffffffffffffffffffffffffffffffffffffff021916908373ffffffffffffffffffffffffffffffffffffffff16021790555087600281905550856003908051906020019062000097929190620000ff565b508460049080519060200190620000b0929190620000ff565b508360059080519060200190620000c9929190620000ff565b50826008819055508160069080519060200190620000e9929190620000ff565b5080600781905550505050505050505062000558565b8280546200010d9062000449565b90600052602060002090601f0160209004810192826200013157600085556200017d565b82601f106200014c57805160ff19168380011785556200017d565b828001600101855582156200017d579182015b828111156200017c5782518255916020019190600101906200015f565b5b5090506200018c919062000190565b5090565b5b80821115620001ab57600081600090555060010162000191565b5090565b6000620001c6620001c0846200039f565b62000376565b905082815260208101848484011115620001df57600080fd5b620001ec84828562000413565b509392505050565b600081519050620002058162000524565b92915050565b600082601f8301126200021d57600080fd5b81516200022f848260208601620001af565b91505092915050565b60008151905062000249816200053e565b92915050565b600080600080600080600080610100898b0312156200026d57600080fd5b60006200027d8b828c0162000238565b9850506020620002908b828c01620001f4565b975050604089015167ffffffffffffffff811115620002ae57600080fd5b620002bc8b828c016200020b565b965050606089015167ffffffffffffffff811115620002da57600080fd5b620002e88b828c016200020b565b955050608089015167ffffffffffffffff8111156200030657600080fd5b620003148b828c016200020b565b94505060a0620003278b828c0162000238565b93505060c089015167ffffffffffffffff8111156200034557600080fd5b620003538b828c016200020b565b92505060e0620003668b828c0162000238565b9150509295985092959890939650565b60006200038262000395565b90506200039082826200047f565b919050565b6000604051905090565b600067ffffffffffffffff821115620003bd57620003bc620004e4565b5b620003c88262000513565b9050602081019050919050565b6000620003e282620003e9565b9050919050565b600073ffffffffffffffffffffffffffffffffffffffff82169050919050565b6000819050919050565b60005b838110156200043357808201518184015260208101905062000416565b8381111562000443576000848401525b50505050565b600060028204905060018216806200046257607f821691505b60208210811415620004795762000478620004b5565b5b50919050565b6200048a8262000513565b810181811067ffffffffffffffff82111715620004ac57620004ab620004e4565b5b80604052505050565b7f4e487b7100000000000000000000000000000000000000000000000000000000600052602260045260246000fd5b7f4e487b7100000000000000000000000000000000000000000000000000000000600052604160045260246000fd5b6000601f19601f8301169050919050565b6200052f81620003d5565b81146200053b57600080fd5b50565b620005498162000409565b81146200055557600080fd5b50565b61242980620005686000396000f3fe6080604052600436106101355760003560e01c8063a7f33715116100ab578063c047eb7e1161006f578063c047eb7e14610436578063c40bec2b14610461578063d7d1bbdb1461048c578063e90b44f2146104b5578063f1e4c240146104f2578063fbbf93a01461051d57610135565b8063a7f337151461034f578063aa6e90c01461037a578063aba83150146103a3578063b2a87fc3146103ce578063b314582d146103f957610135565b806378860268116100fd5780637886026814610235578063802c6ee51461026057806381d12c581461028b57806382fde093146102cb5780639073fa7e146102f65780639a89a5591461033357610135565b80630724fda91461013a5780630a14439114610165578063110842cb146101a25780631fbed579146101cd5780633410452a1461020a575b600080fd5b34801561014657600080fd5b5061014f610552565b60405161015c9190611bf7565b60405180910390f35b34801561017157600080fd5b5061018c600480360381019061018791906118dd565b6105e0565b6040516101999190611bdc565b60405180910390f35b3480156101ae57600080fd5b506101b7610600565b6040516101c49190611bf7565b60405180910390f35b3480156101d957600080fd5b506101f460048036038101906101ef9190611983565b61068e565b6040516102019190611bc1565b60405180910390f35b34801561021657600080fd5b5061021f6106cd565b60405161022c9190611d85565b60405180910390f35b34801561024157600080fd5b5061024a6106d9565b6040516102579190611d85565b60405180910390f35b34801561026c57600080fd5b506102756106df565b6040516102829190611d85565b60405180910390f35b34801561029757600080fd5b506102b260048036038101906102ad9190611983565b6106e5565b6040516102c29493929190611c19565b60405180910390f35b3480156102d757600080fd5b506102e06107ba565b6040516102ed9190611d85565b60405180910390f35b34801561030257600080fd5b5061031d600480360381019061031891906119ac565b6107c0565b60405161032a9190611bdc565b60405180910390f35b61034d60048036038101906103489190611906565b61085f565b005b34801561035b57600080fd5b50610364610c28565b6040516103719190611d85565b60405180910390f35b34801561038657600080fd5b506103a1600480360381019061039c919061192f565b610c2e565b005b3480156103af57600080fd5b506103b8610de7565b6040516103c59190611bf7565b60405180910390f35b3480156103da57600080fd5b506103e3610e75565b6040516103f09190611d85565b60405180910390f35b34801561040557600080fd5b50610420600480360381019061041b91906118dd565b610e7b565b60405161042d9190611bdc565b60405180910390f35b34801561044257600080fd5b5061044b610e9b565b6040516104589190611d85565b60405180910390f35b34801561046d57600080fd5b50610476610ea1565b6040516104839190611bf7565b60405180910390f35b34801561049857600080fd5b506104b360048036038101906104ae9190611983565b610f2f565b005b3480156104c157600080fd5b506104dc60048036038101906104d791906118dd565b6112a6565b6040516104e99190611bdc565b60405180910390f35b3480156104fe57600080fd5b506105076112c6565b6040516105149190611d85565b60405180910390f35b34801561052957600080fd5b506105326112cc565b6040516105499b9a99989796959493929190611da0565b60405180910390f35b6003805461055f90612029565b80601f016020809104026020016040519081016040528092919081815260200182805461058b90612029565b80156105d85780601f106105ad576101008083540402835291602001916105d8565b820191906000526020600020905b8154815290600101906020018083116105bb57829003601f168201915b505050505081565b600b6020528060005260406000206000915054906101000a900460ff1681565b6004805461060d90612029565b80601f016020809104026020016040519081016040528092919081815260200182805461063990612029565b80156106865780601f1061065b57610100808354040283529160200191610686565b820191906000526020600020905b81548152906001019060200180831161066957829003601f168201915b505050505081565b6009818154811061069e57600080fd5b906000526020600020016000915054906101000a900473ffffffffffffffffffffffffffffffffffffffff1681565b60008080549050905090565b600f5481565b600d5481565b600081815481106106f557600080fd5b906000526020600020906005020160009150905080600001805461071890612029565b80601f016020809104026020016040519081016040528092919081815260200182805461074490612029565b80156107915780601f1061076657610100808354040283529160200191610791565b820191906000526020600020905b81548152906001019060200180831161077457829003601f168201915b5050505050908060010154908060020160009054906101000a900460ff16908060030154905084565b600c5481565b60008083815481106107fb577f4e487b7100000000000000000000000000000000000000000000000000000000600052603260045260246000fd5b906000526020600020906005020160040160008373ffffffffffffffffffffffffffffffffffffffff1673ffffffffffffffffffffffffffffffffffffffff16815260200190815260200160002060009054906101000a900460ff16905092915050565b600160009054906101000a900473ffffffffffffffffffffffffffffffffffffffff1673ffffffffffffffffffffffffffffffffffffffff163373ffffffffffffffffffffffffffffffffffffffff1614156108f0576040517f08c379a00000000000000000000000000000000000000000000000000000000081526004016108e790611d45565b60405180910390fd5b34600d60008282546109029190611ee4565b92505081905550600a60003373ffffffffffffffffffffffffffffffffffffffff1673ffffffffffffffffffffffffffffffffffffffff16815260200190815260200160002060009054906101000a900460ff166109be576009339080600181540180825580915050600190039060005260206000200160009091909190916101000a81548173ffffffffffffffffffffffffffffffffffffffff021916908373ffffffffffffffffffffffffffffffffffffffff1602179055505b6001600a60003373ffffffffffffffffffffffffffffffffffffffff1673ffffffffffffffffffffffffffffffffffffffff16815260200190815260200160002060006101000a81548160ff021916908315150217905550600254341115610c2557600b60003373ffffffffffffffffffffffffffffffffffffffff1673ffffffffffffffffffffffffffffffffffffffff16815260200190815260200160002060009054906101000a900460ff16610ae2576001600b60003373ffffffffffffffffffffffffffffffffffffffff1673ffffffffffffffffffffffffffffffffffffffff16815260200190815260200160002060006101000a81548160ff021916908315150217905550600c6000815480929190610adc9061208c565b91905055505b80610b5e576001600e6000828254610afa9190611ee4565b925050819055506001601060003373ffffffffffffffffffffffffffffffffffffffff1673ffffffffffffffffffffffffffffffffffffffff16815260200190815260200160002060006101000a81548160ff021916908315150217905550610c24565b601060003373ffffffffffffffffffffffffffffffffffffffff1673ffffffffffffffffffffffffffffffffffffffff16815260200190815260200160002060009054906101000a900460ff1615610c23576001600e6000828254610bc39190611f6b565b925050819055506000601060003373ffffffffffffffffffffffffffffffffffffffff1673ffffffffffffffffffffffffffffffffffffffff16815260200190815260200160002060006101000a81548160ff0219169083151502179055505b5b5b50565b60025481565b600160009054906101000a900473ffffffffffffffffffffffffffffffffffffffff1673ffffffffffffffffffffffffffffffffffffffff163373ffffffffffffffffffffffffffffffffffffffff1614610cbe576040517f08c379a0000000000000000000000000000000000000000000000000000000008152600401610cb590611c85565b60405180910390fd5b80600f5447610ccd9190611f6b565b1015610d0e576040517f08c379a0000000000000000000000000000000000000000000000000000000008152600401610d0590611c65565b60405180910390fd5b6007544211610d52576040517f08c379a0000000000000000000000000000000000000000000000000000000008152600401610d4990611ce5565b60405180910390fd5b80600f6000828254610d649190611ee4565b92505081905550600080600181600181540180825580915050039060005260206000209060050201905082816000019080519060200190610da6929190611793565b508181600101819055506002600c54610dbf9190611f3a565b600e5410610de257610de16001600080549050610ddc9190611f6b565b611571565b5b505050565b60058054610df490612029565b80601f0160208091040260200160405190810160405280929190818152602001828054610e2090612029565b8015610e6d5780601f10610e4257610100808354040283529160200191610e6d565b820191906000526020600020905b815481529060010190602001808311610e5057829003601f168201915b505050505081565b60085481565b60106020528060005260406000206000915054906101000a900460ff1681565b600e5481565b60068054610eae90612029565b80601f0160208091040260200160405190810160405280929190818152602001828054610eda90612029565b8015610f275780601f10610efc57610100808354040283529160200191610f27565b820191906000526020600020905b815481529060010190602001808311610f0a57829003601f168201915b505050505081565b600b60003373ffffffffffffffffffffffffffffffffffffffff1673ffffffffffffffffffffffffffffffffffffffff16815260200190815260200160002060009054906101000a900460ff16610fbb576040517f08c379a0000000000000000000000000000000000000000000000000000000008152600401610fb290611ca5565b60405180910390fd5b60008181548110610ff5577f4e487b7100000000000000000000000000000000000000000000000000000000600052603260045260246000fd5b906000526020600020906005020160040160003373ffffffffffffffffffffffffffffffffffffffff1673ffffffffffffffffffffffffffffffffffffffff16815260200190815260200160002060009054906101000a900460ff1615611091576040517f08c379a000000000000000000000000000000000000000000000000000000000815260040161108890611d65565b60405180910390fd5b600081815481106110cb577f4e487b7100000000000000000000000000000000000000000000000000000000600052603260045260246000fd5b906000526020600020906005020160020160009054906101000a900460ff161561112a576040517f08c379a000000000000000000000000000000000000000000000000000000000815260040161112190611d05565b60405180910390fd5b600160008281548110611166577f4e487b7100000000000000000000000000000000000000000000000000000000600052603260045260246000fd5b906000526020600020906005020160040160003373ffffffffffffffffffffffffffffffffffffffff1673ffffffffffffffffffffffffffffffffffffffff16815260200190815260200160002060006101000a81548160ff02191690831515021790555060008181548110611205577f4e487b7100000000000000000000000000000000000000000000000000000000600052603260045260246000fd5b906000526020600020906005020160030160008154809291906112279061208c565b91905055506002600c5461123b9190611f3a565b600e5460008381548110611278577f4e487b7100000000000000000000000000000000000000000000000000000000600052603260045260246000fd5b9060005260206000209060050201600301546112949190611ee4565b106112a3576112a281611571565b5b50565b600a6020528060005260406000206000915054906101000a900460ff1681565b60075481565b600080606080606060006060600080600080600254600c546003600460056008546006600754600d54600980549050600160009054906101000a900473ffffffffffffffffffffffffffffffffffffffff1688805461132a90612029565b80601f016020809104026020016040519081016040528092919081815260200182805461135690612029565b80156113a35780601f10611378576101008083540402835291602001916113a3565b820191906000526020600020905b81548152906001019060200180831161138657829003601f168201915b505050505098508780546113b690612029565b80601f01602080910402602001604051908101604052809291908181526020018280546113e290612029565b801561142f5780601f106114045761010080835404028352916020019161142f565b820191906000526020600020905b81548152906001019060200180831161141257829003601f168201915b5050505050975086805461144290612029565b80601f016020809104026020016040519081016040528092919081815260200182805461146e90612029565b80156114bb5780601f10611490576101008083540402835291602001916114bb565b820191906000526020600020905b81548152906001019060200180831161149e57829003601f168201915b505050505096508480546114ce90612029565b80601f01602080910402602001604051908101604052809291908181526020018280546114fa90612029565b80156115475780601f1061151c57610100808354040283529160200191611547565b820191906000526020600020905b81548152906001019060200180831161152a57829003601f168201915b505050505094509a509a509a509a509a509a509a509a509a509a509a50909192939495969798999a565b600081815481106115ab577f4e487b7100000000000000000000000000000000000000000000000000000000600052603260045260246000fd5b906000526020600020906005020160020160009054906101000a900460ff161561160a576040517f08c379a000000000000000000000000000000000000000000000000000000000815260040161160190611d25565b60405180910390fd5b6000808281548110611645577f4e487b7100000000000000000000000000000000000000000000000000000000600052603260045260246000fd5b9060005260206000209060050201600101549050600080600160009054906101000a900473ffffffffffffffffffffffffffffffffffffffff1673ffffffffffffffffffffffffffffffffffffffff16836040516116a290611bac565b60006040518083038185875af1925050503d80600081146116df576040519150601f19603f3d011682016040523d82523d6000602084013e6116e4565b606091505b509150915081611729576040517f08c379a000000000000000000000000000000000000000000000000000000000815260040161172090611cc5565b60405180910390fd5b600160008581548110611765577f4e487b7100000000000000000000000000000000000000000000000000000000600052603260045260246000fd5b906000526020600020906005020160020160006101000a81548160ff02191690831515021790555050505050565b82805461179f90612029565b90600052602060002090601f0160209004810192826117c15760008555611808565b82601f106117da57805160ff1916838001178555611808565b82800160010185558215611808579182015b828111156118075782518255916020019190600101906117ec565b5b5090506118159190611819565b5090565b5b8082111561183257600081600090555060010161181a565b5090565b600061184961184484611e8c565b611e67565b90508281526020810184848401111561186157600080fd5b61186c848285611fe7565b509392505050565b600081359050611883816123ae565b92915050565b600081359050611898816123c5565b92915050565b600082601f8301126118af57600080fd5b81356118bf848260208601611836565b91505092915050565b6000813590506118d7816123dc565b92915050565b6000602082840312156118ef57600080fd5b60006118fd84828501611874565b91505092915050565b60006020828403121561191857600080fd5b600061192684828501611889565b91505092915050565b6000806040838503121561194257600080fd5b600083013567ffffffffffffffff81111561195c57600080fd5b6119688582860161189e565b9250506020611979858286016118c8565b9150509250929050565b60006020828403121561199557600080fd5b60006119a3848285016118c8565b91505092915050565b600080604083850312156119bf57600080fd5b60006119cd858286016118c8565b92505060206119de85828601611874565b9150509250929050565b6119f181611f9f565b82525050565b611a0081611fb1565b82525050565b6000611a1182611ebd565b611a1b8185611ed3565b9350611a2b818560208601611ff6565b611a3481612191565b840191505092915050565b6000611a4c602e83611ed3565b9150611a57826121a2565b604082019050919050565b6000611a6f603783611ed3565b9150611a7a826121f1565b604082019050919050565b6000611a92601b83611ed3565b9150611a9d82612240565b602082019050919050565b6000611ab5601483611ed3565b9150611ac082612269565b602082019050919050565b6000611ad8601a83611ed3565b9150611ae382612292565b602082019050919050565b6000611afb601983611ed3565b9150611b06826122bb565b602082019050919050565b6000611b1e600083611ec8565b9150611b29826122e4565b600082019050919050565b6000611b41601983611ed3565b9150611b4c826122e7565b602082019050919050565b6000611b64602a83611ed3565b9150611b6f82612310565b604082019050919050565b6000611b87602183611ed3565b9150611b928261235f565b604082019050919050565b611ba681611fdd565b82525050565b6000611bb782611b11565b9150819050919050565b6000602082019050611bd660008301846119e8565b92915050565b6000602082019050611bf160008301846119f7565b92915050565b60006020820190508181036000830152611c118184611a06565b905092915050565b60006080820190508181036000830152611c338187611a06565b9050611c426020830186611b9d565b611c4f60408301856119f7565b611c5c6060830184611b9d565b95945050505050565b60006020820190508181036000830152611c7e81611a3f565b9050919050565b60006020820190508181036000830152611c9e81611a62565b9050919050565b60006020820190508181036000830152611cbe81611a85565b9050919050565b60006020820190508181036000830152611cde81611aa8565b9050919050565b60006020820190508181036000830152611cfe81611acb565b9050919050565b60006020820190508181036000830152611d1e81611aee565b9050919050565b60006020820190508181036000830152611d3e81611b34565b9050919050565b60006020820190508181036000830152611d5e81611b57565b9050919050565b60006020820190508181036000830152611d7e81611b7a565b9050919050565b6000602082019050611d9a6000830184611b9d565b92915050565b600061016082019050611db6600083018e611b9d565b611dc3602083018d611b9d565b8181036040830152611dd5818c611a06565b90508181036060830152611de9818b611a06565b90508181036080830152611dfd818a611a06565b9050611e0c60a0830189611b9d565b81810360c0830152611e1e8188611a06565b9050611e2d60e0830187611b9d565b611e3b610100830186611b9d565b611e49610120830185611b9d565b611e576101408301846119e8565b9c9b505050505050505050505050565b6000611e71611e82565b9050611e7d828261205b565b919050565b6000604051905090565b600067ffffffffffffffff821115611ea757611ea6612162565b5b611eb082612191565b9050602081019050919050565b600081519050919050565b600081905092915050565b600082825260208201905092915050565b6000611eef82611fdd565b9150611efa83611fdd565b9250827fffffffffffffffffffffffffffffffffffffffffffffffffffffffffffffffff03821115611f2f57611f2e6120d5565b5b828201905092915050565b6000611f4582611fdd565b9150611f5083611fdd565b925082611f6057611f5f612104565b5b828204905092915050565b6000611f7682611fdd565b9150611f8183611fdd565b925082821015611f9457611f936120d5565b5b828203905092915050565b6000611faa82611fbd565b9050919050565b60008115159050919050565b600073ffffffffffffffffffffffffffffffffffffffff82169050919050565b6000819050919050565b82818337600083830152505050565b60005b83811015612014578082015181840152602081019050611ff9565b83811115612023576000848401525b50505050565b6000600282049050600182168061204157607f821691505b6020821081141561205557612054612133565b5b50919050565b61206482612191565b810181811067ffffffffffffffff8211171561208357612082612162565b5b80604052505050565b600061209782611fdd565b91507fffffffffffffffffffffffffffffffffffffffffffffffffffffffffffffffff8214156120ca576120c96120d5565b5b600182019050919050565b7f4e487b7100000000000000000000000000000000000000000000000000000000600052601160045260246000fd5b7f4e487b7100000000000000000000000000000000000000000000000000000000600052601260045260246000fd5b7f4e487b7100000000000000000000000000000000000000000000000000000000600052602260045260246000fd5b7f4e487b7100000000000000000000000000000000000000000000000000000000600052604160045260246000fd5b6000601f19601f8301169050919050565b7f596f752063616e27742063726561746520612072657175657374206f6620746860008201527f6174206d75636820616d6f756e74000000000000000000000000000000000000602082015250565b7f596f752063616e2774206372656174652061207265717565737420696620796f60008201527f7520617265206e6f742074686520726563697069656e74000000000000000000602082015250565b7f596f752063616e277420617070726f7665206120726571756573740000000000600082015250565b7f4661696c656420746f2073656e64204574686572000000000000000000000000600082015250565b7f43616d706169676e20686173206e6f7420656e64656420796574000000000000600082015250565b7f5265717565737420416c726561647920436f6d706c6574656400000000000000600082015250565b50565b7f5265717565737420616c72656164792066696e616c697a656400000000000000600082015250565b7f596f752063616e6e6f7420636f6e7472696275746520746f20796f7572206f7760008201527f6e2063616d706169676e00000000000000000000000000000000000000000000602082015250565b7f596f7520616c726561647920617070726f76656420746869732072657175657360008201527f7400000000000000000000000000000000000000000000000000000000000000602082015250565b6123b781611f9f565b81146123c257600080fd5b50565b6123ce81611fb1565b81146123d957600080fd5b50565b6123e581611fdd565b81146123f057600080fd5b5056fea2646970667358221220b358d77e32c1d728ef85164435c7795ad1adaca2e3c7c330650de3f85f62fa0664736f6c63430008040033",
  "linkReferences": {},
  "deployedLinkReferences": {}
}