{
  "_format": "hh-sol-artifact-1",
  "contractName": "Campaign",
  "sourceName": "contracts/Campaign.sol",
  "abi": [
    {
      "inputs": [
        {
          "internalType": "uint256",
          "name": "minimun",
          "type": "uint256"
        },
        {
          "internalType": "address",
          "name": "creator",
          "type": "address"
        },
        {
          "internalType": "string",
          "name": "name",
          "type": "string"
        },
        {
          "internalType": "string",
          "name": "description",
          "type": "string"
        },
        {
          "internalType": "string",
          "name": "image",
          "type": "string"
        },
        {
          "internalType": "uint256",
          "name": "target",
          "type": "uint256"
        },
        {
          "internalType": "string",
          "name": "category",
          "type": "string"
        },
        {
          "internalType": "uint256",
          "name": "lastDate",
          "type": "uint256"
        }
      ],
      "stateMutability": "nonpayable",
      "type": "constructor"
    },
    {
      "inputs": [],
      "name": "alwaysApproved",
      "outputs": [
        {
          "internalType": "uint256",
          "name": "",
          "type": "uint256"
        }
      ],
      "stateMutability": "view",
      "type": "function"
    },
    {
      "inputs": [
        {
          "internalType": "address",
          "name": "",
          "type": "address"
        }
      ],
      "name": "alwaysApprovedMap",
      "outputs": [
        {
          "internalType": "bool",
          "name": "",
          "type": "bool"
        }
      ],
      "stateMutability": "view",
      "type": "function"
    },
    {
      "inputs": [
        {
          "internalType": "uint256",
          "name": "index",
          "type": "uint256"
        }
      ],
      "name": "approveRequest",
      "outputs": [],
      "stateMutability": "nonpayable",
      "type": "function"
    },
    {
      "inputs": [
        {
          "internalType": "address",
          "name": "",
          "type": "address"
        }
      ],
      "name": "approvers",
      "outputs": [
        {
          "internalType": "bool",
          "name": "",
          "type": "bool"
        }
      ],
      "stateMutability": "view",
      "type": "function"
    },
    {
      "inputs": [],
      "name": "approversCount",
      "outputs": [
        {
          "internalType": "uint256",
          "name": "",
          "type": "uint256"
        }
      ],
      "stateMutability": "view",
      "type": "function"
    },
    {
      "inputs": [],
      "name": "campaignCategory",
      "outputs": [
        {
          "internalType": "string",
          "name": "",
          "type": "string"
        }
      ],
      "stateMutability": "view",
      "type": "function"
    },
    {
      "inputs": [],
      "name": "campaignDescription",
      "outputs": [
        {
          "internalType": "string",
          "name": "",
          "type": "string"
        }
      ],
      "stateMutability": "view",
      "type": "function"
    },
    {
      "inputs": [],
      "name": "campaignLastDate",
      "outputs": [
        {
          "internalType": "uint256",
          "name": "",
          "type": "uint256"
        }
      ],
      "stateMutability": "view",
      "type": "function"
    },
    {
      "inputs": [],
      "name": "campaignName",
      "outputs": [
        {
          "internalType": "string",
          "name": "",
          "type": "string"
        }
      ],
      "stateMutability": "view",
      "type": "function"
    },
    {
      "inputs": [],
      "name": "collectedAmount",
      "outputs": [
        {
          "internalType": "uint256",
          "name": "",
          "type": "uint256"
        }
      ],
      "stateMutability": "view",
      "type": "function"
    },
    {
      "inputs": [
        {
          "internalType": "bool",
          "name": "wantToApprove",
          "type": "bool"
        }
      ],
      "name": "contibute",
      "outputs": [],
      "stateMutability": "payable",
      "type": "function"
    },
    {
      "inputs": [
        {
          "internalType": "uint256",
          "name": "",
          "type": "uint256"
        }
      ],
      "name": "contributers",
      "outputs": [
        {
          "internalType": "address",
          "name": "",
          "type": "address"
        }
      ],
      "stateMutability": "view",
      "type": "function"
    },
    {
      "inputs": [
        {
          "internalType": "address",
          "name": "",
          "type": "address"
        }
      ],
      "name": "contributersMap",
      "outputs": [
        {
          "internalType": "bool",
          "name": "",
          "type": "bool"
        }
      ],
      "stateMutability": "view",
      "type": "function"
    },
    {
      "inputs": [
        {
          "internalType": "string",
          "name": "description",
          "type": "string"
        },
        {
          "internalType": "uint256",
          "name": "value",
          "type": "uint256"
        }
      ],
      "name": "createRequest",
      "outputs": [],
      "stateMutability": "nonpayable",
      "type": "function"
    },
    {
      "inputs": [],
      "name": "getDetails",
      "outputs": [
        {
          "internalType": "uint256",
          "name": "",
          "type": "uint256"
        },
        {
          "internalType": "uint256",
          "name": "",
          "type": "uint256"
        },
        {
          "internalType": "string",
          "name": "",
          "type": "string"
        },
        {
          "internalType": "string",
          "name": "",
          "type": "string"
        },
        {
          "internalType": "string",
          "name": "",
          "type": "string"
        },
        {
          "internalType": "uint256",
          "name": "",
          "type": "uint256"
        },
        {
          "internalType": "string",
          "name": "",
          "type": "string"
        },
        {
          "internalType": "uint256",
          "name": "",
          "type": "uint256"
        },
        {
          "internalType": "uint256",
          "name": "",
          "type": "uint256"
        },
        {
          "internalType": "uint256",
          "name": "",
          "type": "uint256"
        },
        {
          "internalType": "address",
          "name": "",
          "type": "address"
        }
      ],
      "stateMutability": "view",
      "type": "function"
    },
    {
      "inputs": [],
      "name": "getRequestsCount",
      "outputs": [
        {
          "internalType": "uint256",
          "name": "",
          "type": "uint256"
        }
      ],
      "stateMutability": "view",
      "type": "function"
    },
    {
      "inputs": [],
      "name": "imageUrl",
      "outputs": [
        {
          "internalType": "string",
          "name": "",
          "type": "string"
        }
      ],
      "stateMutability": "view",
      "type": "function"
    },
    {
      "inputs": [],
      "name": "minimunContribution",
      "outputs": [
        {
          "internalType": "uint256",
          "name": "",
          "type": "uint256"
        }
      ],
      "stateMutability": "view",
      "type": "function"
    },
    {
      "inputs": [],
      "name": "requestedAmount",
      "outputs": [
        {
          "internalType": "uint256",
          "name": "",
          "type": "uint256"
        }
      ],
      "stateMutability": "view",
      "type": "function"
    },
    {
      "inputs": [
        {
          "internalType": "uint256",
          "name": "",
          "type": "uint256"
        }
      ],
      "name": "requests",
      "outputs": [
        {
          "internalType": "string",
          "name": "description",
          "type": "string"
        },
        {
          "internalType": "uint256",
          "name": "value",
          "type": "uint256"
        },
        {
          "internalType": "bool",
          "name": "complete",
          "type": "bool"
        },
        {
          "internalType": "uint256",
          "name": "approvalCount",
          "type": "uint256"
        }
      ],
      "stateMutability": "view",
      "type": "function"
    },
    {
      "inputs": [],
      "name": "targetToAchieve",
      "outputs": [
        {
          "internalType": "uint256",
          "name": "",
          "type": "uint256"
        }
      ],
      "stateMutability": "view",
      "type": "function"
    }
  ],
  "bytecode": "0x60806040523480156200001157600080fd5b50604051620028403803806200284083398181016040528101906200003791906200024f565b86600160006101000a81548173ffffffffffffffffffffffffffffffffffffffff021916908373ffffffffffffffffffffffffffffffffffffffff16021790555087600281905550856003908051906020019062000097929190620000ff565b508460049080519060200190620000b0929190620000ff565b508360059080519060200190620000c9929190620000ff565b50826008819055508160069080519060200190620000e9929190620000ff565b5080600781905550505050505050505062000558565b8280546200010d9062000449565b90600052602060002090601f0160209004810192826200013157600085556200017d565b82601f106200014c57805160ff19168380011785556200017d565b828001600101855582156200017d579182015b828111156200017c5782518255916020019190600101906200015f565b5b5090506200018c919062000190565b5090565b5b80821115620001ab57600081600090555060010162000191565b5090565b6000620001c6620001c0846200039f565b62000376565b905082815260208101848484011115620001df57600080fd5b620001ec84828562000413565b509392505050565b600081519050620002058162000524565b92915050565b600082601f8301126200021d57600080fd5b81516200022f848260208601620001af565b91505092915050565b60008151905062000249816200053e565b92915050565b600080600080600080600080610100898b0312156200026d57600080fd5b60006200027d8b828c0162000238565b9850506020620002908b828c01620001f4565b975050604089015167ffffffffffffffff811115620002ae57600080fd5b620002bc8b828c016200020b565b965050606089015167ffffffffffffffff811115620002da57600080fd5b620002e88b828c016200020b565b955050608089015167ffffffffffffffff8111156200030657600080fd5b620003148b828c016200020b565b94505060a0620003278b828c0162000238565b93505060c089015167ffffffffffffffff8111156200034557600080fd5b620003538b828c016200020b565b92505060e0620003668b828c0162000238565b9150509295985092959890939650565b60006200038262000395565b90506200039082826200047f565b919050565b6000604051905090565b600067ffffffffffffffff821115620003bd57620003bc620004e4565b5b620003c88262000513565b9050602081019050919050565b6000620003e282620003e9565b9050919050565b600073ffffffffffffffffffffffffffffffffffffffff82169050919050565b6000819050919050565b60005b838110156200043357808201518184015260208101905062000416565b8381111562000443576000848401525b50505050565b600060028204905060018216806200046257607f821691505b60208210811415620004795762000478620004b5565b5b50919050565b6200048a8262000513565b810181811067ffffffffffffffff82111715620004ac57620004ab620004e4565b5b80604052505050565b7f4e487b7100000000000000000000000000000000000000000000000000000000600052602260045260246000fd5b7f4e487b7100000000000000000000000000000000000000000000000000000000600052604160045260246000fd5b6000601f19601f8301169050919050565b6200052f81620003d5565b81146200053b57600080fd5b50565b620005498162000409565b81146200055557600080fd5b50565b6122d880620005686000396000f3fe60806040526004361061012a5760003560e01c8063a7f33715116100ab578063c047eb7e1161006f578063c047eb7e146103ee578063c40bec2b14610419578063d7d1bbdb14610444578063e90b44f21461046d578063f1e4c240146104aa578063fbbf93a0146104d55761012a565b8063a7f3371514610307578063aa6e90c014610332578063aba831501461035b578063b2a87fc314610386578063b314582d146103b15761012a565b806378860268116100f2578063788602681461022a578063802c6ee51461025557806381d12c581461028057806382fde093146102c05780639a89a559146102eb5761012a565b80630724fda91461012f5780630a1443911461015a578063110842cb146101975780631fbed579146101c25780633410452a146101ff575b600080fd5b34801561013b57600080fd5b5061014461050a565b6040516101519190611aa6565b60405180910390f35b34801561016657600080fd5b50610181600480360381019061017c91906117c8565b610598565b60405161018e9190611a8b565b60405180910390f35b3480156101a357600080fd5b506101ac6105b8565b6040516101b99190611aa6565b60405180910390f35b3480156101ce57600080fd5b506101e960048036038101906101e4919061186e565b610646565b6040516101f69190611a70565b60405180910390f35b34801561020b57600080fd5b50610214610685565b6040516102219190611c34565b60405180910390f35b34801561023657600080fd5b5061023f610691565b60405161024c9190611c34565b60405180910390f35b34801561026157600080fd5b5061026a610697565b6040516102779190611c34565b60405180910390f35b34801561028c57600080fd5b506102a760048036038101906102a2919061186e565b61069d565b6040516102b79493929190611ac8565b60405180910390f35b3480156102cc57600080fd5b506102d5610772565b6040516102e29190611c34565b60405180910390f35b610305600480360381019061030091906117f1565b610778565b005b34801561031357600080fd5b5061031c610b45565b6040516103299190611c34565b60405180910390f35b34801561033e57600080fd5b506103596004803603810190610354919061181a565b610b4b565b005b34801561036757600080fd5b50610370610cd2565b60405161037d9190611aa6565b60405180910390f35b34801561039257600080fd5b5061039b610d60565b6040516103a89190611c34565b60405180910390f35b3480156103bd57600080fd5b506103d860048036038101906103d391906117c8565b610d66565b6040516103e59190611a8b565b60405180910390f35b3480156103fa57600080fd5b50610403610d86565b6040516104109190611c34565b60405180910390f35b34801561042557600080fd5b5061042e610d8c565b60405161043b9190611aa6565b60405180910390f35b34801561045057600080fd5b5061046b6004803603810190610466919061186e565b610e1a565b005b34801561047957600080fd5b50610494600480360381019061048f91906117c8565b611191565b6040516104a19190611a8b565b60405180910390f35b3480156104b657600080fd5b506104bf6111b1565b6040516104cc9190611c34565b60405180910390f35b3480156104e157600080fd5b506104ea6111b7565b6040516105019b9a99989796959493929190611c4f565b60405180910390f35b6003805461051790611ed8565b80601f016020809104026020016040519081016040528092919081815260200182805461054390611ed8565b80156105905780601f1061056557610100808354040283529160200191610590565b820191906000526020600020905b81548152906001019060200180831161057357829003601f168201915b505050505081565b600b6020528060005260406000206000915054906101000a900460ff1681565b600480546105c590611ed8565b80601f01602080910402602001604051908101604052809291908181526020018280546105f190611ed8565b801561063e5780601f106106135761010080835404028352916020019161063e565b820191906000526020600020905b81548152906001019060200180831161062157829003601f168201915b505050505081565b6009818154811061065657600080fd5b906000526020600020016000915054906101000a900473ffffffffffffffffffffffffffffffffffffffff1681565b60008080549050905090565b600f5481565b600d5481565b600081815481106106ad57600080fd5b90600052602060002090600502016000915090508060000180546106d090611ed8565b80601f01602080910402602001604051908101604052809291908181526020018280546106fc90611ed8565b80156107495780601f1061071e57610100808354040283529160200191610749565b820191906000526020600020905b81548152906001019060200180831161072c57829003601f168201915b5050505050908060010154908060020160009054906101000a900460ff16908060030154905084565b600c5481565b600160009054906101000a900473ffffffffffffffffffffffffffffffffffffffff1673ffffffffffffffffffffffffffffffffffffffff163373ffffffffffffffffffffffffffffffffffffffff161415610809576040517f08c379a000000000000000000000000000000000000000000000000000000000815260040161080090611bf4565b60405180910390fd5b34600d600082825461081b9190611d93565b92505081905550600a60003373ffffffffffffffffffffffffffffffffffffffff1673ffffffffffffffffffffffffffffffffffffffff16815260200190815260200160002060009054906101000a900460ff166108d7576009339080600181540180825580915050600190039060005260206000200160009091909190916101000a81548173ffffffffffffffffffffffffffffffffffffffff021916908373ffffffffffffffffffffffffffffffffffffffff1602179055505b6001600a60003373ffffffffffffffffffffffffffffffffffffffff1673ffffffffffffffffffffffffffffffffffffffff16815260200190815260200160002060006101000a81548160ff021916908315150217905550600b60003373ffffffffffffffffffffffffffffffffffffffff1673ffffffffffffffffffffffffffffffffffffffff16815260200190815260200160002060009054906101000a900460ff1615801561098a575060025434115b15610b42576001600b60003373ffffffffffffffffffffffffffffffffffffffff1673ffffffffffffffffffffffffffffffffffffffff16815260200190815260200160002060006101000a81548160ff021916908315150217905550600c60008154809291906109fa90611f3b565b919050555080610a7b576001600e6000828254610a179190611d93565b925050819055506001601060003373ffffffffffffffffffffffffffffffffffffffff1673ffffffffffffffffffffffffffffffffffffffff16815260200190815260200160002060006101000a81548160ff021916908315150217905550610b41565b601060003373ffffffffffffffffffffffffffffffffffffffff1673ffffffffffffffffffffffffffffffffffffffff16815260200190815260200160002060009054906101000a900460ff1615610b40576001600e6000828254610ae09190611e1a565b925050819055506000601060003373ffffffffffffffffffffffffffffffffffffffff1673ffffffffffffffffffffffffffffffffffffffff16815260200190815260200160002060006101000a81548160ff0219169083151502179055505b5b5b50565b60025481565b600160009054906101000a900473ffffffffffffffffffffffffffffffffffffffff1673ffffffffffffffffffffffffffffffffffffffff163373ffffffffffffffffffffffffffffffffffffffff1614610bdb576040517f08c379a0000000000000000000000000000000000000000000000000000000008152600401610bd290611b34565b60405180910390fd5b80600f5447610bea9190611e1a565b1015610c2b576040517f08c379a0000000000000000000000000000000000000000000000000000000008152600401610c2290611b14565b60405180910390fd5b6007544211610c6f576040517f08c379a0000000000000000000000000000000000000000000000000000000008152600401610c6690611b94565b60405180910390fd5b80600f6000828254610c819190611d93565b92505081905550600080600181600181540180825580915050039060005260206000209060050201905082816000019080519060200190610cc392919061167e565b50818160010181905550505050565b60058054610cdf90611ed8565b80601f0160208091040260200160405190810160405280929190818152602001828054610d0b90611ed8565b8015610d585780601f10610d2d57610100808354040283529160200191610d58565b820191906000526020600020905b815481529060010190602001808311610d3b57829003601f168201915b505050505081565b60085481565b60106020528060005260406000206000915054906101000a900460ff1681565b600e5481565b60068054610d9990611ed8565b80601f0160208091040260200160405190810160405280929190818152602001828054610dc590611ed8565b8015610e125780601f10610de757610100808354040283529160200191610e12565b820191906000526020600020905b815481529060010190602001808311610df557829003601f168201915b505050505081565b600b60003373ffffffffffffffffffffffffffffffffffffffff1673ffffffffffffffffffffffffffffffffffffffff16815260200190815260200160002060009054906101000a900460ff16610ea6576040517f08c379a0000000000000000000000000000000000000000000000000000000008152600401610e9d90611b54565b60405180910390fd5b60008181548110610ee0577f4e487b7100000000000000000000000000000000000000000000000000000000600052603260045260246000fd5b906000526020600020906005020160040160003373ffffffffffffffffffffffffffffffffffffffff1673ffffffffffffffffffffffffffffffffffffffff16815260200190815260200160002060009054906101000a900460ff1615610f7c576040517f08c379a0000000000000000000000000000000000000000000000000000000008152600401610f7390611c14565b60405180910390fd5b60008181548110610fb6577f4e487b7100000000000000000000000000000000000000000000000000000000600052603260045260246000fd5b906000526020600020906005020160020160009054906101000a900460ff1615611015576040517f08c379a000000000000000000000000000000000000000000000000000000000815260040161100c90611bb4565b60405180910390fd5b600160008281548110611051577f4e487b7100000000000000000000000000000000000000000000000000000000600052603260045260246000fd5b906000526020600020906005020160040160003373ffffffffffffffffffffffffffffffffffffffff1673ffffffffffffffffffffffffffffffffffffffff16815260200190815260200160002060006101000a81548160ff021916908315150217905550600081815481106110f0577f4e487b7100000000000000000000000000000000000000000000000000000000600052603260045260246000fd5b9060005260206000209060050201600301600081548092919061111290611f3b565b91905055506002600c546111269190611de9565b600e5460008381548110611163577f4e487b7100000000000000000000000000000000000000000000000000000000600052603260045260246000fd5b90600052602060002090600502016003015461117f9190611d93565b1061118e5761118d8161145c565b5b50565b600a6020528060005260406000206000915054906101000a900460ff1681565b60075481565b600080606080606060006060600080600080600254600c546003600460056008546006600754600d54600980549050600160009054906101000a900473ffffffffffffffffffffffffffffffffffffffff1688805461121590611ed8565b80601f016020809104026020016040519081016040528092919081815260200182805461124190611ed8565b801561128e5780601f106112635761010080835404028352916020019161128e565b820191906000526020600020905b81548152906001019060200180831161127157829003601f168201915b505050505098508780546112a190611ed8565b80601f01602080910402602001604051908101604052809291908181526020018280546112cd90611ed8565b801561131a5780601f106112ef5761010080835404028352916020019161131a565b820191906000526020600020905b8154815290600101906020018083116112fd57829003601f168201915b5050505050975086805461132d90611ed8565b80601f016020809104026020016040519081016040528092919081815260200182805461135990611ed8565b80156113a65780601f1061137b576101008083540402835291602001916113a6565b820191906000526020600020905b81548152906001019060200180831161138957829003601f168201915b505050505096508480546113b990611ed8565b80601f01602080910402602001604051908101604052809291908181526020018280546113e590611ed8565b80156114325780601f1061140757610100808354040283529160200191611432565b820191906000526020600020905b81548152906001019060200180831161141557829003601f168201915b505050505094509a509a509a509a509a509a509a509a509a509a509a50909192939495969798999a565b60008181548110611496577f4e487b7100000000000000000000000000000000000000000000000000000000600052603260045260246000fd5b906000526020600020906005020160020160009054906101000a900460ff16156114f5576040517f08c379a00000000000000000000000000000000000000000000000000000000081526004016114ec90611bd4565b60405180910390fd5b6000808281548110611530577f4e487b7100000000000000000000000000000000000000000000000000000000600052603260045260246000fd5b9060005260206000209060050201600101549050600080600160009054906101000a900473ffffffffffffffffffffffffffffffffffffffff1673ffffffffffffffffffffffffffffffffffffffff168360405161158d90611a5b565b60006040518083038185875af1925050503d80600081146115ca576040519150601f19603f3d011682016040523d82523d6000602084013e6115cf565b606091505b509150915081611614576040517f08c379a000000000000000000000000000000000000000000000000000000000815260040161160b90611b74565b60405180910390fd5b600160008581548110611650577f4e487b7100000000000000000000000000000000000000000000000000000000600052603260045260246000fd5b906000526020600020906005020160020160006101000a81548160ff02191690831515021790555050505050565b82805461168a90611ed8565b90600052602060002090601f0160209004810192826116ac57600085556116f3565b82601f106116c557805160ff19168380011785556116f3565b828001600101855582156116f3579182015b828111156116f25782518255916020019190600101906116d7565b5b5090506117009190611704565b5090565b5b8082111561171d576000816000905550600101611705565b5090565b600061173461172f84611d3b565b611d16565b90508281526020810184848401111561174c57600080fd5b611757848285611e96565b509392505050565b60008135905061176e8161225d565b92915050565b60008135905061178381612274565b92915050565b600082601f83011261179a57600080fd5b81356117aa848260208601611721565b91505092915050565b6000813590506117c28161228b565b92915050565b6000602082840312156117da57600080fd5b60006117e88482850161175f565b91505092915050565b60006020828403121561180357600080fd5b600061181184828501611774565b91505092915050565b6000806040838503121561182d57600080fd5b600083013567ffffffffffffffff81111561184757600080fd5b61185385828601611789565b9250506020611864858286016117b3565b9150509250929050565b60006020828403121561188057600080fd5b600061188e848285016117b3565b91505092915050565b6118a081611e4e565b82525050565b6118af81611e60565b82525050565b60006118c082611d6c565b6118ca8185611d82565b93506118da818560208601611ea5565b6118e381612040565b840191505092915050565b60006118fb602e83611d82565b915061190682612051565b604082019050919050565b600061191e603783611d82565b9150611929826120a0565b604082019050919050565b6000611941601b83611d82565b915061194c826120ef565b602082019050919050565b6000611964601483611d82565b915061196f82612118565b602082019050919050565b6000611987601a83611d82565b915061199282612141565b602082019050919050565b60006119aa601983611d82565b91506119b58261216a565b602082019050919050565b60006119cd600083611d77565b91506119d882612193565b600082019050919050565b60006119f0601983611d82565b91506119fb82612196565b602082019050919050565b6000611a13602a83611d82565b9150611a1e826121bf565b604082019050919050565b6000611a36602183611d82565b9150611a418261220e565b604082019050919050565b611a5581611e8c565b82525050565b6000611a66826119c0565b9150819050919050565b6000602082019050611a856000830184611897565b92915050565b6000602082019050611aa060008301846118a6565b92915050565b60006020820190508181036000830152611ac081846118b5565b905092915050565b60006080820190508181036000830152611ae281876118b5565b9050611af16020830186611a4c565b611afe60408301856118a6565b611b0b6060830184611a4c565b95945050505050565b60006020820190508181036000830152611b2d816118ee565b9050919050565b60006020820190508181036000830152611b4d81611911565b9050919050565b60006020820190508181036000830152611b6d81611934565b9050919050565b60006020820190508181036000830152611b8d81611957565b9050919050565b60006020820190508181036000830152611bad8161197a565b9050919050565b60006020820190508181036000830152611bcd8161199d565b9050919050565b60006020820190508181036000830152611bed816119e3565b9050919050565b60006020820190508181036000830152611c0d81611a06565b9050919050565b60006020820190508181036000830152611c2d81611a29565b9050919050565b6000602082019050611c496000830184611a4c565b92915050565b600061016082019050611c65600083018e611a4c565b611c72602083018d611a4c565b8181036040830152611c84818c6118b5565b90508181036060830152611c98818b6118b5565b90508181036080830152611cac818a6118b5565b9050611cbb60a0830189611a4c565b81810360c0830152611ccd81886118b5565b9050611cdc60e0830187611a4c565b611cea610100830186611a4c565b611cf8610120830185611a4c565b611d06610140830184611897565b9c9b505050505050505050505050565b6000611d20611d31565b9050611d2c8282611f0a565b919050565b6000604051905090565b600067ffffffffffffffff821115611d5657611d55612011565b5b611d5f82612040565b9050602081019050919050565b600081519050919050565b600081905092915050565b600082825260208201905092915050565b6000611d9e82611e8c565b9150611da983611e8c565b9250827fffffffffffffffffffffffffffffffffffffffffffffffffffffffffffffffff03821115611dde57611ddd611f84565b5b828201905092915050565b6000611df482611e8c565b9150611dff83611e8c565b925082611e0f57611e0e611fb3565b5b828204905092915050565b6000611e2582611e8c565b9150611e3083611e8c565b925082821015611e4357611e42611f84565b5b828203905092915050565b6000611e5982611e6c565b9050919050565b60008115159050919050565b600073ffffffffffffffffffffffffffffffffffffffff82169050919050565b6000819050919050565b82818337600083830152505050565b60005b83811015611ec3578082015181840152602081019050611ea8565b83811115611ed2576000848401525b50505050565b60006002820490506001821680611ef057607f821691505b60208210811415611f0457611f03611fe2565b5b50919050565b611f1382612040565b810181811067ffffffffffffffff82111715611f3257611f31612011565b5b80604052505050565b6000611f4682611e8c565b91507fffffffffffffffffffffffffffffffffffffffffffffffffffffffffffffffff821415611f7957611f78611f84565b5b600182019050919050565b7f4e487b7100000000000000000000000000000000000000000000000000000000600052601160045260246000fd5b7f4e487b7100000000000000000000000000000000000000000000000000000000600052601260045260246000fd5b7f4e487b7100000000000000000000000000000000000000000000000000000000600052602260045260246000fd5b7f4e487b7100000000000000000000000000000000000000000000000000000000600052604160045260246000fd5b6000601f19601f8301169050919050565b7f596f752063616e27742063726561746520612072657175657374206f6620746860008201527f6174206d75636820616d6f756e74000000000000000000000000000000000000602082015250565b7f596f752063616e2774206372656174652061207265717565737420696620796f60008201527f7520617265206e6f742074686520726563697069656e74000000000000000000602082015250565b7f596f752063616e277420617070726f7665206120726571756573740000000000600082015250565b7f4661696c656420746f2073656e64204574686572000000000000000000000000600082015250565b7f43616d706169676e20686173206e6f7420656e64656420796574000000000000600082015250565b7f5265717565737420416c726561647920436f6d706c6574656400000000000000600082015250565b50565b7f5265717565737420616c72656164792066696e616c697a656400000000000000600082015250565b7f596f752063616e6e6f7420636f6e7472696275746520746f20796f7572206f7760008201527f6e2063616d706169676e00000000000000000000000000000000000000000000602082015250565b7f596f7520616c726561647920617070726f76656420746869732072657175657360008201527f7400000000000000000000000000000000000000000000000000000000000000602082015250565b61226681611e4e565b811461227157600080fd5b50565b61227d81611e60565b811461228857600080fd5b50565b61229481611e8c565b811461229f57600080fd5b5056fea2646970667358221220a0c664d4ac7d7f8fd8b1b9d6fb8a686856871e0ee026499fdc3aa82fa6a8bcb964736f6c63430008040033",
  "linkReferences": {},
  "deployedLinkReferences": {}
}