{
  "_format": "hh-sol-artifact-1",
  "contractName": "CampaignFactory",
  "sourceName": "contracts/Campaign.sol",
  "abi": [
    {
      "inputs": [
        {
          "internalType": "uint256",
          "name": "minimum",
          "type": "uint256"
        },
        {
          "internalType": "string",
          "name": "name",
          "type": "string"
        },
        {
          "internalType": "string",
          "name": "description",
          "type": "string"
        },
        {
          "internalType": "string",
          "name": "imageUrl",
          "type": "string"
        },
        {
          "internalType": "uint256",
          "name": "target",
          "type": "uint256"
        },
        {
          "internalType": "string",
          "name": "category",
          "type": "string"
        },
        {
          "internalType": "uint256",
          "name": "lastdate",
          "type": "uint256"
        }
      ],
      "name": "createCampaign",
      "outputs": [],
      "stateMutability": "nonpayable",
      "type": "function"
    },
    {
      "inputs": [
        {
          "internalType": "uint256",
          "name": "",
          "type": "uint256"
        }
      ],
      "name": "deployedCampaigns",
      "outputs": [
        {
          "internalType": "address",
          "name": "",
          "type": "address"
        }
      ],
      "stateMutability": "view",
      "type": "function"
    },
    {
      "inputs": [],
      "name": "getDeployedCampaigns",
      "outputs": [
        {
          "internalType": "address[]",
          "name": "",
          "type": "address[]"
        }
      ],
      "stateMutability": "view",
      "type": "function"
    }
  ],
  "bytecode": "0x608060405234801561001057600080fd5b506131a8806100206000396000f3fe60806040523480156200001157600080fd5b5060043610620000465760003560e01c8063339d50a5146200004b5780634acb9d4f14620000815780637e9dc4d014620000a3575b600080fd5b620000696004803603810190620000639190620002e2565b620000c3565b60405162000078919062000517565b60405180910390f35b6200008b62000103565b6040516200009a919062000534565b60405180910390f35b620000c16004803603810190620000bb91906200030e565b62000193565b005b60008181548110620000d457600080fd5b906000526020600020016000915054906101000a900473ffffffffffffffffffffffffffffffffffffffff1681565b606060008054806020026020016040519081016040528092919081815260200182805480156200018957602002820191906000526020600020905b8160009054906101000a900473ffffffffffffffffffffffffffffffffffffffff1673ffffffffffffffffffffffffffffffffffffffff16815260200190600101908083116200013e575b5050505050905090565b60008733888888888888604051620001ab906200024b565b620001be98979695949392919062000558565b604051809103906000f080158015620001db573d6000803e3d6000fd5b5090506000819080600181540180825580915050600190039060005260206000200160009091909190916101000a81548173ffffffffffffffffffffffffffffffffffffffff021916908373ffffffffffffffffffffffffffffffffffffffff1602179055505050505050505050565b6129a980620007ca83390190565b6000620002706200026a846200062b565b62000602565b9050828152602081018484840111156200028957600080fd5b62000296848285620006f4565b509392505050565b600082601f830112620002b057600080fd5b8135620002c284826020860162000259565b91505092915050565b600081359050620002dc81620007af565b92915050565b600060208284031215620002f557600080fd5b60006200030584828501620002cb565b91505092915050565b600080600080600080600060e0888a0312156200032a57600080fd5b60006200033a8a828b01620002cb565b975050602088013567ffffffffffffffff8111156200035857600080fd5b620003668a828b016200029e565b965050604088013567ffffffffffffffff8111156200038457600080fd5b620003928a828b016200029e565b955050606088013567ffffffffffffffff811115620003b057600080fd5b620003be8a828b016200029e565b9450506080620003d18a828b01620002cb565b93505060a088013567ffffffffffffffff811115620003ef57600080fd5b620003fd8a828b016200029e565b92505060c0620004108a828b01620002cb565b91505092959891949750929550565b60006200042d838362000439565b60208301905092915050565b6200044481620006b6565b82525050565b6200045581620006b6565b82525050565b6000620004688262000671565b62000474818562000694565b9350620004818362000661565b8060005b83811015620004b85781516200049c88826200041f565b9750620004a98362000687565b92505060018101905062000485565b5085935050505092915050565b6000620004d2826200067c565b620004de8185620006a5565b9350620004f081856020860162000703565b620004fb816200079e565b840191505092915050565b6200051181620006ea565b82525050565b60006020820190506200052e60008301846200044a565b92915050565b600060208201905081810360008301526200055081846200045b565b905092915050565b60006101008201905062000570600083018b62000506565b6200057f602083018a6200044a565b8181036040830152620005938189620004c5565b90508181036060830152620005a98188620004c5565b90508181036080830152620005bf8187620004c5565b9050620005d060a083018662000506565b81810360c0830152620005e48185620004c5565b9050620005f560e083018462000506565b9998505050505050505050565b60006200060e62000621565b90506200061c828262000739565b919050565b6000604051905090565b600067ffffffffffffffff8211156200064957620006486200076f565b5b62000654826200079e565b9050602081019050919050565b6000819050602082019050919050565b600081519050919050565b600081519050919050565b6000602082019050919050565b600082825260208201905092915050565b600082825260208201905092915050565b6000620006c382620006ca565b9050919050565b600073ffffffffffffffffffffffffffffffffffffffff82169050919050565b6000819050919050565b82818337600083830152505050565b60005b838110156200072357808201518184015260208101905062000706565b8381111562000733576000848401525b50505050565b62000744826200079e565b810181811067ffffffffffffffff821117156200076657620007656200076f565b5b80604052505050565b7f4e487b7100000000000000000000000000000000000000000000000000000000600052604160045260246000fd5b6000601f19601f8301169050919050565b620007ba81620006ea565b8114620007c657600080fd5b5056fe60806040523480156200001157600080fd5b50604051620029a9380380620029a983398181016040528101906200003791906200024f565b86600160006101000a81548173ffffffffffffffffffffffffffffffffffffffff021916908373ffffffffffffffffffffffffffffffffffffffff16021790555087600281905550856003908051906020019062000097929190620000ff565b508460049080519060200190620000b0929190620000ff565b508360059080519060200190620000c9929190620000ff565b50826008819055508160069080519060200190620000e9929190620000ff565b5080600781905550505050505050505062000558565b8280546200010d9062000449565b90600052602060002090601f0160209004810192826200013157600085556200017d565b82601f106200014c57805160ff19168380011785556200017d565b828001600101855582156200017d579182015b828111156200017c5782518255916020019190600101906200015f565b5b5090506200018c919062000190565b5090565b5b80821115620001ab57600081600090555060010162000191565b5090565b6000620001c6620001c0846200039f565b62000376565b905082815260208101848484011115620001df57600080fd5b620001ec84828562000413565b509392505050565b600081519050620002058162000524565b92915050565b600082601f8301126200021d57600080fd5b81516200022f848260208601620001af565b91505092915050565b60008151905062000249816200053e565b92915050565b600080600080600080600080610100898b0312156200026d57600080fd5b60006200027d8b828c0162000238565b9850506020620002908b828c01620001f4565b975050604089015167ffffffffffffffff811115620002ae57600080fd5b620002bc8b828c016200020b565b965050606089015167ffffffffffffffff811115620002da57600080fd5b620002e88b828c016200020b565b955050608089015167ffffffffffffffff8111156200030657600080fd5b620003148b828c016200020b565b94505060a0620003278b828c0162000238565b93505060c089015167ffffffffffffffff8111156200034557600080fd5b620003538b828c016200020b565b92505060e0620003668b828c0162000238565b9150509295985092959890939650565b60006200038262000395565b90506200039082826200047f565b919050565b6000604051905090565b600067ffffffffffffffff821115620003bd57620003bc620004e4565b5b620003c88262000513565b9050602081019050919050565b6000620003e282620003e9565b9050919050565b600073ffffffffffffffffffffffffffffffffffffffff82169050919050565b6000819050919050565b60005b838110156200043357808201518184015260208101905062000416565b8381111562000443576000848401525b50505050565b600060028204905060018216806200046257607f821691505b60208210811415620004795762000478620004b5565b5b50919050565b6200048a8262000513565b810181811067ffffffffffffffff82111715620004ac57620004ab620004e4565b5b80604052505050565b7f4e487b7100000000000000000000000000000000000000000000000000000000600052602260045260246000fd5b7f4e487b7100000000000000000000000000000000000000000000000000000000600052604160045260246000fd5b6000601f19601f8301169050919050565b6200052f81620003d5565b81146200053b57600080fd5b50565b620005498162000409565b81146200055557600080fd5b50565b61244180620005686000396000f3fe6080604052600436106101355760003560e01c8063a7f33715116100ab578063c047eb7e1161006f578063c047eb7e14610436578063c40bec2b14610461578063d7d1bbdb1461048c578063e90b44f2146104b5578063f1e4c240146104f2578063fbbf93a01461051d57610135565b8063a7f337151461034f578063aa6e90c01461037a578063aba83150146103a3578063b2a87fc3146103ce578063b314582d146103f957610135565b806378860268116100fd5780637886026814610235578063802c6ee51461026057806381d12c581461028b57806382fde093146102cb5780639073fa7e146102f65780639a89a5591461033357610135565b80630724fda91461013a5780630a14439114610165578063110842cb146101a25780631fbed579146101cd5780633410452a1461020a575b600080fd5b34801561014657600080fd5b5061014f610552565b60405161015c9190611c0f565b60405180910390f35b34801561017157600080fd5b5061018c600480360381019061018791906118f5565b6105e0565b6040516101999190611bf4565b60405180910390f35b3480156101ae57600080fd5b506101b7610600565b6040516101c49190611c0f565b60405180910390f35b3480156101d957600080fd5b506101f460048036038101906101ef919061199b565b61068e565b6040516102019190611bd9565b60405180910390f35b34801561021657600080fd5b5061021f6106cd565b60405161022c9190611d9d565b60405180910390f35b34801561024157600080fd5b5061024a6106d9565b6040516102579190611d9d565b60405180910390f35b34801561026c57600080fd5b506102756106df565b6040516102829190611d9d565b60405180910390f35b34801561029757600080fd5b506102b260048036038101906102ad919061199b565b6106e5565b6040516102c29493929190611c31565b60405180910390f35b3480156102d757600080fd5b506102e06107ba565b6040516102ed9190611d9d565b60405180910390f35b34801561030257600080fd5b5061031d600480360381019061031891906119c4565b6107c0565b60405161032a9190611bf4565b60405180910390f35b61034d6004803603810190610348919061191e565b61085f565b005b34801561035b57600080fd5b50610364610c28565b6040516103719190611d9d565b60405180910390f35b34801561038657600080fd5b506103a1600480360381019061039c9190611947565b610c2e565b005b3480156103af57600080fd5b506103b8610df3565b6040516103c59190611c0f565b60405180910390f35b3480156103da57600080fd5b506103e3610e81565b6040516103f09190611d9d565b60405180910390f35b34801561040557600080fd5b50610420600480360381019061041b91906118f5565b610e87565b60405161042d9190611bf4565b60405180910390f35b34801561044257600080fd5b5061044b610ea7565b6040516104589190611d9d565b60405180910390f35b34801561046d57600080fd5b50610476610ead565b6040516104839190611c0f565b60405180910390f35b34801561049857600080fd5b506104b360048036038101906104ae919061199b565b610f3b565b005b3480156104c157600080fd5b506104dc60048036038101906104d791906118f5565b6112be565b6040516104e99190611bf4565b60405180910390f35b3480156104fe57600080fd5b506105076112de565b6040516105149190611d9d565b60405180910390f35b34801561052957600080fd5b506105326112e4565b6040516105499b9a99989796959493929190611db8565b60405180910390f35b6003805461055f90612041565b80601f016020809104026020016040519081016040528092919081815260200182805461058b90612041565b80156105d85780601f106105ad576101008083540402835291602001916105d8565b820191906000526020600020905b8154815290600101906020018083116105bb57829003601f168201915b505050505081565b600b6020528060005260406000206000915054906101000a900460ff1681565b6004805461060d90612041565b80601f016020809104026020016040519081016040528092919081815260200182805461063990612041565b80156106865780601f1061065b57610100808354040283529160200191610686565b820191906000526020600020905b81548152906001019060200180831161066957829003601f168201915b505050505081565b6009818154811061069e57600080fd5b906000526020600020016000915054906101000a900473ffffffffffffffffffffffffffffffffffffffff1681565b60008080549050905090565b600f5481565b600d5481565b600081815481106106f557600080fd5b906000526020600020906005020160009150905080600001805461071890612041565b80601f016020809104026020016040519081016040528092919081815260200182805461074490612041565b80156107915780601f1061076657610100808354040283529160200191610791565b820191906000526020600020905b81548152906001019060200180831161077457829003601f168201915b5050505050908060010154908060020160009054906101000a900460ff16908060030154905084565b600c5481565b60008083815481106107fb577f4e487b7100000000000000000000000000000000000000000000000000000000600052603260045260246000fd5b906000526020600020906005020160040160008373ffffffffffffffffffffffffffffffffffffffff1673ffffffffffffffffffffffffffffffffffffffff16815260200190815260200160002060009054906101000a900460ff16905092915050565b600160009054906101000a900473ffffffffffffffffffffffffffffffffffffffff1673ffffffffffffffffffffffffffffffffffffffff163373ffffffffffffffffffffffffffffffffffffffff1614156108f0576040517f08c379a00000000000000000000000000000000000000000000000000000000081526004016108e790611d5d565b60405180910390fd5b34600d60008282546109029190611efc565b92505081905550600a60003373ffffffffffffffffffffffffffffffffffffffff1673ffffffffffffffffffffffffffffffffffffffff16815260200190815260200160002060009054906101000a900460ff166109be576009339080600181540180825580915050600190039060005260206000200160009091909190916101000a81548173ffffffffffffffffffffffffffffffffffffffff021916908373ffffffffffffffffffffffffffffffffffffffff1602179055505b6001600a60003373ffffffffffffffffffffffffffffffffffffffff1673ffffffffffffffffffffffffffffffffffffffff16815260200190815260200160002060006101000a81548160ff021916908315150217905550600254341115610c2557600b60003373ffffffffffffffffffffffffffffffffffffffff1673ffffffffffffffffffffffffffffffffffffffff16815260200190815260200160002060009054906101000a900460ff16610ae2576001600b60003373ffffffffffffffffffffffffffffffffffffffff1673ffffffffffffffffffffffffffffffffffffffff16815260200190815260200160002060006101000a81548160ff021916908315150217905550600c6000815480929190610adc906120a4565b91905055505b80610b5e576001600e6000828254610afa9190611efc565b925050819055506001601060003373ffffffffffffffffffffffffffffffffffffffff1673ffffffffffffffffffffffffffffffffffffffff16815260200190815260200160002060006101000a81548160ff021916908315150217905550610c24565b601060003373ffffffffffffffffffffffffffffffffffffffff1673ffffffffffffffffffffffffffffffffffffffff16815260200190815260200160002060009054906101000a900460ff1615610c23576001600e6000828254610bc39190611f83565b925050819055506000601060003373ffffffffffffffffffffffffffffffffffffffff1673ffffffffffffffffffffffffffffffffffffffff16815260200190815260200160002060006101000a81548160ff0219169083151502179055505b5b5b50565b60025481565b600160009054906101000a900473ffffffffffffffffffffffffffffffffffffffff1673ffffffffffffffffffffffffffffffffffffffff163373ffffffffffffffffffffffffffffffffffffffff1614610cbe576040517f08c379a0000000000000000000000000000000000000000000000000000000008152600401610cb590611c9d565b60405180910390fd5b80600f5447610ccd9190611f83565b1015610d0e576040517f08c379a0000000000000000000000000000000000000000000000000000000008152600401610d0590611c7d565b60405180910390fd5b6007544211610d52576040517f08c379a0000000000000000000000000000000000000000000000000000000008152600401610d4990611cfd565b60405180910390fd5b80600f6000828254610d649190611efc565b92505081905550600080600181600181540180825580915050039060005260206000209060050201905082816000019080519060200190610da69291906117ab565b5081816001018190555060026001600c54610dc19190611efc565b610dcb9190611f52565b600e5410610dee57610ded6001600080549050610de89190611f83565b611589565b5b505050565b60058054610e0090612041565b80601f0160208091040260200160405190810160405280929190818152602001828054610e2c90612041565b8015610e795780601f10610e4e57610100808354040283529160200191610e79565b820191906000526020600020905b815481529060010190602001808311610e5c57829003601f168201915b505050505081565b60085481565b60106020528060005260406000206000915054906101000a900460ff1681565b600e5481565b60068054610eba90612041565b80601f0160208091040260200160405190810160405280929190818152602001828054610ee690612041565b8015610f335780601f10610f0857610100808354040283529160200191610f33565b820191906000526020600020905b815481529060010190602001808311610f1657829003601f168201915b505050505081565b600b60003373ffffffffffffffffffffffffffffffffffffffff1673ffffffffffffffffffffffffffffffffffffffff16815260200190815260200160002060009054906101000a900460ff16610fc7576040517f08c379a0000000000000000000000000000000000000000000000000000000008152600401610fbe90611cbd565b60405180910390fd5b60008181548110611001577f4e487b7100000000000000000000000000000000000000000000000000000000600052603260045260246000fd5b906000526020600020906005020160040160003373ffffffffffffffffffffffffffffffffffffffff1673ffffffffffffffffffffffffffffffffffffffff16815260200190815260200160002060009054906101000a900460ff161561109d576040517f08c379a000000000000000000000000000000000000000000000000000000000815260040161109490611d7d565b60405180910390fd5b600081815481106110d7577f4e487b7100000000000000000000000000000000000000000000000000000000600052603260045260246000fd5b906000526020600020906005020160020160009054906101000a900460ff1615611136576040517f08c379a000000000000000000000000000000000000000000000000000000000815260040161112d90611d1d565b60405180910390fd5b600160008281548110611172577f4e487b7100000000000000000000000000000000000000000000000000000000600052603260045260246000fd5b906000526020600020906005020160040160003373ffffffffffffffffffffffffffffffffffffffff1673ffffffffffffffffffffffffffffffffffffffff16815260200190815260200160002060006101000a81548160ff02191690831515021790555060008181548110611211577f4e487b7100000000000000000000000000000000000000000000000000000000600052603260045260246000fd5b90600052602060002090600502016003016000815480929190611233906120a4565b919050555060026001600c546112499190611efc565b6112539190611f52565b600e5460008381548110611290577f4e487b7100000000000000000000000000000000000000000000000000000000600052603260045260246000fd5b9060005260206000209060050201600301546112ac9190611efc565b106112bb576112ba81611589565b5b50565b600a6020528060005260406000206000915054906101000a900460ff1681565b60075481565b600080606080606060006060600080600080600254600c546003600460056008546006600754600d54600980549050600160009054906101000a900473ffffffffffffffffffffffffffffffffffffffff1688805461134290612041565b80601f016020809104026020016040519081016040528092919081815260200182805461136e90612041565b80156113bb5780601f10611390576101008083540402835291602001916113bb565b820191906000526020600020905b81548152906001019060200180831161139e57829003601f168201915b505050505098508780546113ce90612041565b80601f01602080910402602001604051908101604052809291908181526020018280546113fa90612041565b80156114475780601f1061141c57610100808354040283529160200191611447565b820191906000526020600020905b81548152906001019060200180831161142a57829003601f168201915b5050505050975086805461145a90612041565b80601f016020809104026020016040519081016040528092919081815260200182805461148690612041565b80156114d35780601f106114a8576101008083540402835291602001916114d3565b820191906000526020600020905b8154815290600101906020018083116114b657829003601f168201915b505050505096508480546114e690612041565b80601f016020809104026020016040519081016040528092919081815260200182805461151290612041565b801561155f5780601f106115345761010080835404028352916020019161155f565b820191906000526020600020905b81548152906001019060200180831161154257829003601f168201915b505050505094509a509a509a509a509a509a509a509a509a509a509a50909192939495969798999a565b600081815481106115c3577f4e487b7100000000000000000000000000000000000000000000000000000000600052603260045260246000fd5b906000526020600020906005020160020160009054906101000a900460ff1615611622576040517f08c379a000000000000000000000000000000000000000000000000000000000815260040161161990611d3d565b60405180910390fd5b600080828154811061165d577f4e487b7100000000000000000000000000000000000000000000000000000000600052603260045260246000fd5b9060005260206000209060050201600101549050600080600160009054906101000a900473ffffffffffffffffffffffffffffffffffffffff1673ffffffffffffffffffffffffffffffffffffffff16836040516116ba90611bc4565b60006040518083038185875af1925050503d80600081146116f7576040519150601f19603f3d011682016040523d82523d6000602084013e6116fc565b606091505b509150915081611741576040517f08c379a000000000000000000000000000000000000000000000000000000000815260040161173890611cdd565b60405180910390fd5b60016000858154811061177d577f4e487b7100000000000000000000000000000000000000000000000000000000600052603260045260246000fd5b906000526020600020906005020160020160006101000a81548160ff02191690831515021790555050505050565b8280546117b790612041565b90600052602060002090601f0160209004810192826117d95760008555611820565b82601f106117f257805160ff1916838001178555611820565b82800160010185558215611820579182015b8281111561181f578251825591602001919060010190611804565b5b50905061182d9190611831565b5090565b5b8082111561184a576000816000905550600101611832565b5090565b600061186161185c84611ea4565b611e7f565b90508281526020810184848401111561187957600080fd5b611884848285611fff565b509392505050565b60008135905061189b816123c6565b92915050565b6000813590506118b0816123dd565b92915050565b600082601f8301126118c757600080fd5b81356118d784826020860161184e565b91505092915050565b6000813590506118ef816123f4565b92915050565b60006020828403121561190757600080fd5b60006119158482850161188c565b91505092915050565b60006020828403121561193057600080fd5b600061193e848285016118a1565b91505092915050565b6000806040838503121561195a57600080fd5b600083013567ffffffffffffffff81111561197457600080fd5b611980858286016118b6565b9250506020611991858286016118e0565b9150509250929050565b6000602082840312156119ad57600080fd5b60006119bb848285016118e0565b91505092915050565b600080604083850312156119d757600080fd5b60006119e5858286016118e0565b92505060206119f68582860161188c565b9150509250929050565b611a0981611fb7565b82525050565b611a1881611fc9565b82525050565b6000611a2982611ed5565b611a338185611eeb565b9350611a4381856020860161200e565b611a4c816121a9565b840191505092915050565b6000611a64602e83611eeb565b9150611a6f826121ba565b604082019050919050565b6000611a87603783611eeb565b9150611a9282612209565b604082019050919050565b6000611aaa601b83611eeb565b9150611ab582612258565b602082019050919050565b6000611acd601483611eeb565b9150611ad882612281565b602082019050919050565b6000611af0601a83611eeb565b9150611afb826122aa565b602082019050919050565b6000611b13601983611eeb565b9150611b1e826122d3565b602082019050919050565b6000611b36600083611ee0565b9150611b41826122fc565b600082019050919050565b6000611b59601983611eeb565b9150611b64826122ff565b602082019050919050565b6000611b7c602a83611eeb565b9150611b8782612328565b604082019050919050565b6000611b9f602183611eeb565b9150611baa82612377565b604082019050919050565b611bbe81611ff5565b82525050565b6000611bcf82611b29565b9150819050919050565b6000602082019050611bee6000830184611a00565b92915050565b6000602082019050611c096000830184611a0f565b92915050565b60006020820190508181036000830152611c298184611a1e565b905092915050565b60006080820190508181036000830152611c4b8187611a1e565b9050611c5a6020830186611bb5565b611c676040830185611a0f565b611c746060830184611bb5565b95945050505050565b60006020820190508181036000830152611c9681611a57565b9050919050565b60006020820190508181036000830152611cb681611a7a565b9050919050565b60006020820190508181036000830152611cd681611a9d565b9050919050565b60006020820190508181036000830152611cf681611ac0565b9050919050565b60006020820190508181036000830152611d1681611ae3565b9050919050565b60006020820190508181036000830152611d3681611b06565b9050919050565b60006020820190508181036000830152611d5681611b4c565b9050919050565b60006020820190508181036000830152611d7681611b6f565b9050919050565b60006020820190508181036000830152611d9681611b92565b9050919050565b6000602082019050611db26000830184611bb5565b92915050565b600061016082019050611dce600083018e611bb5565b611ddb602083018d611bb5565b8181036040830152611ded818c611a1e565b90508181036060830152611e01818b611a1e565b90508181036080830152611e15818a611a1e565b9050611e2460a0830189611bb5565b81810360c0830152611e368188611a1e565b9050611e4560e0830187611bb5565b611e53610100830186611bb5565b611e61610120830185611bb5565b611e6f610140830184611a00565b9c9b505050505050505050505050565b6000611e89611e9a565b9050611e958282612073565b919050565b6000604051905090565b600067ffffffffffffffff821115611ebf57611ebe61217a565b5b611ec8826121a9565b9050602081019050919050565b600081519050919050565b600081905092915050565b600082825260208201905092915050565b6000611f0782611ff5565b9150611f1283611ff5565b9250827fffffffffffffffffffffffffffffffffffffffffffffffffffffffffffffffff03821115611f4757611f466120ed565b5b828201905092915050565b6000611f5d82611ff5565b9150611f6883611ff5565b925082611f7857611f7761211c565b5b828204905092915050565b6000611f8e82611ff5565b9150611f9983611ff5565b925082821015611fac57611fab6120ed565b5b828203905092915050565b6000611fc282611fd5565b9050919050565b60008115159050919050565b600073ffffffffffffffffffffffffffffffffffffffff82169050919050565b6000819050919050565b82818337600083830152505050565b60005b8381101561202c578082015181840152602081019050612011565b8381111561203b576000848401525b50505050565b6000600282049050600182168061205957607f821691505b6020821081141561206d5761206c61214b565b5b50919050565b61207c826121a9565b810181811067ffffffffffffffff8211171561209b5761209a61217a565b5b80604052505050565b60006120af82611ff5565b91507fffffffffffffffffffffffffffffffffffffffffffffffffffffffffffffffff8214156120e2576120e16120ed565b5b600182019050919050565b7f4e487b7100000000000000000000000000000000000000000000000000000000600052601160045260246000fd5b7f4e487b7100000000000000000000000000000000000000000000000000000000600052601260045260246000fd5b7f4e487b7100000000000000000000000000000000000000000000000000000000600052602260045260246000fd5b7f4e487b7100000000000000000000000000000000000000000000000000000000600052604160045260246000fd5b6000601f19601f8301169050919050565b7f596f752063616e27742063726561746520612072657175657374206f6620746860008201527f6174206d75636820616d6f756e74000000000000000000000000000000000000602082015250565b7f596f752063616e2774206372656174652061207265717565737420696620796f60008201527f7520617265206e6f742074686520726563697069656e74000000000000000000602082015250565b7f596f752063616e277420617070726f7665206120726571756573740000000000600082015250565b7f4661696c656420746f2073656e64204574686572000000000000000000000000600082015250565b7f43616d706169676e20686173206e6f7420656e64656420796574000000000000600082015250565b7f5265717565737420416c726561647920436f6d706c6574656400000000000000600082015250565b50565b7f5265717565737420616c72656164792066696e616c697a656400000000000000600082015250565b7f596f752063616e6e6f7420636f6e7472696275746520746f20796f7572206f7760008201527f6e2063616d706169676e00000000000000000000000000000000000000000000602082015250565b7f596f7520616c726561647920617070726f76656420746869732072657175657360008201527f7400000000000000000000000000000000000000000000000000000000000000602082015250565b6123cf81611fb7565b81146123da57600080fd5b50565b6123e681611fc9565b81146123f157600080fd5b50565b6123fd81611ff5565b811461240857600080fd5b5056fea2646970667358221220cdc873161d1a00174036aa2335551166a5ce55899a5cddd90032ee85bfadc5e264736f6c63430008040033a26469706673582212206c3f1c4eda9e1437ff0d9142180fb86eb826d97d680643c36ba1b3765231188164736f6c63430008040033",
  "linkReferences": {},
  "deployedLinkReferences": {}
}